:10000000001A002009240000656D0000C1230000D3
:10001000C1230000C1230000C12300000000000034
:100020000000000000000000000000004D20000063
:10003000C123000000000000F51F0000C1230000E4
:100040002D2100002D2100002D2100002D21000078
:100050002D2100002D2100002D2100002D21000068
:100060002D2100002D2100002D2100002D21000058
:100070002D2100002D2100002D2100002D21000048
:100080002D2100002D2100002D2100002D21000038
:100090002D2100002D2100002D2100002D21000028
:1000A0002D2100002D2100002D2100002D21000018
:1000B0002D2100002D2100002D2100002D21000008
:1000C0002D2100002D2100002D2100002D210000F8
:0C00D0002D2100002D2100002D2100003A
:1000DC004FF0FF0C1CEAD0521EBF1CEAD15392EA1F
:1000EC000C0F93EA0C0F6FD01A4480EA010C4002FB
:1000FC0018BF5FEA41211ED04FF0006343EA501055
:10010C0043EA5111A0FB01310CF00040B1F5000F96
:10011C003EBF490041EAD3715B0040EA010062F145
:10012C007F02FD2A1DD8B3F1004F40EBC25008BF2F
:10013C0020F00100704790F0000F0CF0004C08BF4D
:10014C0049024CEA502040EA51207F3AC2BFD2F11A
:10015C00FF0340EAC250704740F400004FF0000328
:10016C00013A5DDC12F1190FDCBF00F00040704762
:10017C00C2F10002410021FA02F1C2F1200200FAA0
:10018C0002FC5FEA310040F1000053EA4C0308BF67
:10019C0020EADC70704792F0000F00F0004C02BFB8
:1001AC00400010F4000F013AF9D040EA0C0093F033
:1001BC00000F01F0004C02BF490011F4000F013B8D
:1001CC00F9D041EA0C018FE70CEAD15392EA0C0FFB
:1001DC0018BF93EA0C0F0AD030F0004C18BF31F066
:1001EC00004CD8D180EA010000F00040704790F03C
:1001FC00000F17BF90F0004F084691F0000F91F0E0
:10020C00004F14D092EA0C0F01D142020FD193EAA5
:10021C000C0F03D14B0218BF084608D180EA01002D
:10022C0000F0004040F0FE4040F40000704740F009
:10023C00FE4040F44000704781F0004102E000BFF6
:10024C0083F0004330B54FEA41044FEA430594EA8A
:10025C00050F08BF90EA020F1FBF54EA000C55EAC5
:10026C00020C7FEA645C7FEA655C00F0E2804FEA96
:10027C005454D4EB5555B8BF6D420CDD2C4480EA78
:10028C00020281EA030382EA000083EA010180EAA8
:10029C00020281EA0303362D88BF30BD11F0004FF6
:1002AC004FEA01314FF4801C4CEA113102D040422C
:1002BC0061EB410113F0004F4FEA03334CEA133367
:1002CC0002D0524263EB430394EA050F00F0A7807F
:1002DC00A4F10104D5F1200E0DDB02FA0EFC22FA7A
:1002EC0005F2801841F1000103FA0EF2801843FA6E
:1002FC0005F359410EE0A5F120050EF1200E012A5F
:10030C0003FA0EFC28BF4CF0020C43FA05F3C0189C
:10031C0051EBE37101F0004507D54FF0000EDCF115
:10032C00000C7EEB00006EEB0101B1F5801F1BD3BE
:10033C00B1F5001F0CD349085FEA30004FEA3C0CC2
:10034C0004F101044FEA445212F5800F80F09A80B8
:10035C00BCF1004F08BF5FEA500C50F1000041EBBC
:10036C00045141EA050130BD5FEA4C0C404141EBC0
:10037C000101013C28BFB1F5801FE9D291F0000FBB
:10038C0004BF01460020B1FA81F308BF2033A3F16A
:10039C000B03B3F120020CDA0C3208DD02F1140C61
:1003AC00C2F10C0201FA0CF021FA02F10CE002F19C
:1003BC001402D8BFC2F1200C01FA02F120FA0CFC95
:1003CC00DCBF41EA0C019040E41AA2BF01EB0451DE
:1003DC00294330BD6FEA04041F3C1CDA0C340EDCDC
:1003EC0004F11404C4F1200220FA04F001FA02F31F
:1003FC0040EA030021FA04F345EA030130BDC4F1DD
:10040C000C04C4F1200220FA02F001FA04F340EAD1
:10041C000300294630BD21FA04F0294630BD94F082
:10042C00000F83F4801306BF81F480110134013D69
:10043C004EE77FEA645C18BF7FEA655C29D094EADA
:10044C00050F08BF90EA020F05D054EA000C04BF58
:10045C001946104630BD91EA030F1EBF0021002043
:10046C0030BD5FEA545C05D14000494128BF41F0E2
:10047C00004130BD14F580043CBF01F5801130BD46
:10048C0001F0004545F0FE4141F470014FF00000D1
:10049C0030BD7FEA645C1ABF194610467FEA655C82
:1004AC001CBF0B46024650EA013406BF52EA033524
:1004BC0091EA030F41F4002130BD00BF90F0000F12
:1004CC0004BF0021704730B54FF4806404F132044E
:1004DC004FF000054FF0000150E700BF90F0000F07
:1004EC0004BF0021704730B54FF4806404F132042E
:1004FC0010F0004548BF40424FF000013EE700BFFE
:10050C0042004FEAE2014FEA31014FEA02701FBF8D
:10051C0012F07F4393F07F4F81F06051704732F0BF
:10052C007F4208BF704793F07F4F04BF41F4002116
:10053C00704730B54FF4607401F0004521F0004174
:10054C001CE700BF50EA010208BF704730B54FF0FE
:10055C0000050AE050EA010208BF704730B511F0FF
:10056C00004502D5404261EB41014FF4806404F137
:10057C0032045FEA915C3FF4D8AE4FF003025FEABD
:10058C00DC0C18BF03325FEADC0C18BF033202EB41
:10059C00DC02C2F1200300FA03FC20FA02F001FA9B
:1005AC0003FE40EA0E0021FA02F11444BDE600BF3E
:1005BC0080F0004002E000BF81F0004142001FBF0C
:1005CC005FEA410392EA030F7FEA226C7FEA236C15
:1005DC006AD04FEA1262D2EB1363C1BFD21841400A
:1005EC0048404140B8BF5B42192B88BF704710F0A0
:1005FC00004F40F4000020F07F4018BF404211F043
:10060C00004F41F4000121F07F4118BF494292EAAA
:10061C00030F3FD0A2F1010241FA03FC10EB0C00D6
:10062C00C3F1200301FA03F100F0004302D5494263
:10063C0060EB4000B0F5000F13D3B0F1807F06D310
:10064C0040084FEA310102F10102FE2A51D2B1F108
:10065C00004F40EBC25008BF20F0010040EA0300FD
:10066C007047490040EB0000013A28BFB0F5000F7D
:10067C00EDD2B0FA80FCACF1080CB2EB0C0200FA33
:10068C000CF0AABF00EBC25052421843BCBFD04082
:10069C001843704792F0000F81F4000106BF80F4FC
:1006AC0000000132013BB5E74FEA41037FEA226CBF
:1006BC0018BF7FEA236C21D092EA030F04D092F08A
:1006CC00000F08BF0846704790EA010F1CBF0020BE
:1006DC00704712F07F4F04D1400028BF40F000401B
:1006EC00704712F100723CBF00F50000704700F03B
:1006FC00004343F0FE4040F4000070477FEA226262
:10070C0016BF08467FEA23630146420206BF5FEA32
:10071C00412390EA010F40F4800070474FF0000332
:10072C0004E000BF10F0004348BF40425FEA000CF9
:10073C0008BF704743F0964301464FF000001CE0A1
:10074C0050EA010208BF70474FF000030AE000BFF7
:10075C0050EA010208BF704711F0004302D5404235
:10076C0061EB41015FEA010C02BF844601460020A7
:10077C0043F0B64308BFA3F18053A3F50003BCFAC2
:10078C008CF2083AA3EBC25310DB01FA02FC63446F
:10079C0000FA02FCC2F12002BCF1004F20FA02F276
:1007AC0043EB020008BF20F00100704702F1200269
:1007BC0001FA02FCC2F1200250EA4C0021FA02F2CA
:1007CC0043EB020008BF20EADC70704753B94AB90A
:1007DC00002908BF00281CBF4FF0FF314FF0FF303D
:1007EC0000F00CB8ADF1080C6DE904CE00F008F87F
:1007FC00DDF804E0DDE9022304B07047704700BF68
:10080C002DE9F04F07468C460846099E15463C4696
:10081C001946002B40F0C6808242B2FA82F746D9C4
:10082C004FB1C7F1200E24FA0EFE00FA07F3BD40BB
:10083C004EEA030CBC404FEA15481FFA85FEBCFB80
:10084C00F8F9220C08FB19C309FB0EFA42EA034320
:10085C009A4528D9EB1809F1FF3004D29A4502D9F0
:10086C00A9F102002B44A3EB0A03A4B2B3FBF8F2E8
:10087C0008FB123302FB0EFE44EA0344A64514D9CE
:10088C002C1902F1FF3303D2A64501D9931E2C4437
:10089C00A4EB0E0443EA00401EB1FC40002334607C
:1008AC007360BDE8F08F4846DDE71346F0E702B908
:1008BC00FFDE87BB831A01214FEA154EAAB2B3FBA8
:1008CC00FEFC200C0EFB1C330CFB02F840EA03432D
:1008DC00984563D9EB180CF1FF3004D2984502D936
:1008EC00ACF102002B44A3EB0803A4B2B3FBFEFC57
:1008FC000EFB1C330CFB02F244EA0344A2424FD918
:10090C002C190CF1FF3304D2A24202D9ACF1020330
:10091C002C44A41ABEE7C7F1200C20FA0CF800FAFC
:10092C0007F324FA0CFCBD404CEA03024FEA154EC7
:10093C00ABB2B8FBFEFC110C0EFB1C800CFB03F9DC
:10094C0041EA0040814504FA07F423D928180CF138
:10095C00FF3104D2814502D9ACF102012844A0EB4D
:10096C00090092B2B0FBFEFC0EFB1C000CFB03F862
:10097C0042EA004398450FD9EB180CF1FF3204D230
:10098C00984502D9ACF102022B44A3EB080342EACE
:10099C00014191E76146E2E76246F6E76046A2E76D
:1009AC006346B6E7834205D90EB1C6E90070002153
:1009BC00084676E7B3FA83F181B9834201D3BA4290
:1009CC000AD8BC1A60EB030301209C46002E68D0A9
:1009DC00C6E9004C002164E70846F7E7C1F1200C9A
:1009EC008B4022FA0CF41C4302FA01F500FA01F3D5
:1009FC0027FA0CF220FA0CFB4FEA14491343BBFB09
:100A0C00F9F81FFA84FE09FB18BB1A0C08FB0EFA46
:100A1C0042EA0B42924507FA01F73ED9A21808F1B7
:100A2C00FF3004D2924502D9A8F102002244A2EB75
:100A3C000A029BB2B2FBF9F809FB182208FB0EFE66
:100A4C0043EA024296452AD9A21808F1FF3304D290
:100A5C00964502D9A8F10203224443EA0040A0FBC8
:100A6C000593A2EB0E029A42CE46984602D306D1CB
:100A7C004F4504D2B9EB050E63EB0408013886B17F
:100A8C00B7EB0E0362EB080707FA0CFCCB404CEA01
:100A9C000303CF40C6E900379CE74046C7E743460F
:100AAC00DBE73146FDE6000010B58CB02F4807F0AF
:100ABC004BF800283DD10CB010BD9DF81C009DF8E2
:100ACC001D3043EA0020FFF72DFE4FF06651FFF773
:100ADC00FFFA09909DF81E009DF81F3043EA002094
:100AEC00FFF720FE4FF06651FFF7F2FA0A909DF8DF
:100AFC0020009DF8213043EA0020FFF713FE4FF051
:100B0C006651FFF7E5FA0B904FF0FF324FF0FF33D1
:100B1C0009A9174804F018FC0998FFF7F1FC0246E4
:100B2C000B46144805F023FE40F6CD40002105F09D
:100B3C00EFFA3B238DF803300DF1030301930123EE
:100B4C00029300238DF80C3007AB04930623059316
:100B5C0007238DF81830054883689C6868230222A7
:100B6C0001A9A0470028A8D0A5E700BFCC810000B0
:100B7C00C8010020C883000010B584B0064B6C4639
:100B8C000FCB84E80F00054805F0F1FD94E80F0049
:100B9C0005F078FD04B010BD90830000D4830000F4
:100BAC0000B585B0EC46044B0FCB8CE80F0005F07C
:100BBC0069FD05B05DF804FBA083000000B585B0AD
:100BCC00EC46044B0FCB8CE80F0005F05BFD05B039
:100BDC005DF804FBB083000000B585B04FF0FF3228
:100BEC004FF0FF3301A9024804F004FCF6E700BF04
:100BFC00C801002008B50B6801330B60014B1B6862
:100C0C00984708BD00000020014B1860704700BFDA
:100C1C000000002000B583B002460B460021019174
:100C2C0001A9034800F052FC03B05DF804FB00BFBF
:100C3C00010C00002DE9F04383B00446084615462C
:100C4C00238B13F0080F05D103F007060023009344
:100C5C00019369E0012909D043F02003238385F334
:100C6C001188BFF36F8F03B0BDE8F08343F010031E
:100C7C002383F4E7204605F0AFFD57E0D4F8149039
:100C8C004A466946204605F0C0FD00275AE0236914
:100C9C001F680621204605F078FD4FF0000951E051
:100CAC0023695F680421204605F06FFD4FF00009B1
:100CBC0048E023699F680521204605F066FD4FF04A
:100CCC0000093FE0002246E0002244E043F0080324
:100CDC00238385F31188BFF36F8F002944D1009BC8
:100CEC002BB14B4642466946204605F005FE17B12E
:100CFC0025492046B8474FF02003EFF3118583F3C5
:100D0C001288BFF36F8F238B23F008032383238B6D
:100D1C0013F0100F2ED023F0100323830120268B09
:100D2C0006F0070600289AD00228A3D0002896D0F7
:100D3C000128A3D00328AAD00428B1D00528B8D004
:100D4C000027B946238B03F00708B045BAD0A26838
:100D5C00002AB9D001221146002AB7D1009A002AE4
:100D6C00B4D1002FB2D1D2E74A464146204605F015
:100D7C0014FDB4E713F0200F04D023F020032383D9
:100D8C000220CCE70020CAE73369000070B582B0BE
:100D9C00044600230360436083604B78252B02D00C
:100DAC004E1C01251FE0881CE37046E1237843F0BC
:100DBC0004032370B5B1013614E0237843F0080323
:100DCC002370F7E7237843F010032370F2E72378BE
:100DDC0043F020032370EDE7237843F040032370A6
:100DEC00E8E7002545B33378203B102BF9D801A256
:100DFC0052F823F0D10D0000EF0D0000EF0D0000B4
:100E0C00DB0D0000EF0D0000EF0D0000EF0D0000FA
:100E1C00EF0D0000EF0D0000EF0D0000EF0D0000D6
:100E2C00C70D0000EF0D0000B90D0000EF0D000024
:100E3C00EF0D0000E50D0000237803F04403442B74
:100E4C005FD00196237843F08003237033782A2BEC
:100E5C005CD001A805F094FE019B9E420FD0237834
:100E6C0043F0800323706060DBB2C3F340030028BF
:100E7C0054DB00221343227863F341022270019B5E
:100E8C0001931B782E2B14BF00230123627863F38C
:100E9C0041026270002B43D0019B5A1C01925B787B
:100EAC002A2B3FD001A805F06BFEA0602378C3F37A
:100EBC00400300283EDB00221343227863F34102F7
:100ECC002270019803784C3B2E2B00F29E80DFE8B9
:100EDC0003F0919C9C9C9C9C9C9C9C9C9C9C9C9C96
:100EEC009C9C9C9C9C9C9C9C9C9C9C9C9C9C339C9F
:100EFC00579C459C9C9C9C9C9C9C8A9C9C9C9C9CD4
:100F0C00830023786FF3861323709AE7637843F09A
:100F1C0001036370334601330193B1E70122A9E762
:100F2C000198CFE7637843F00403637010460130F7
:100F3C000190C7E70122BFE7421C4378682B06D01B
:100F4C006378022161F3C603637010461EE0637878
:100F5C00012262F3C6036370023017E0421C43782F
:100F6C006C2B06D06378032161F3C60363701046C3
:100F7C000CE06378042262F3C6036370023005E070
:100F8C006378052262F3C6036370013010F8012BFD
:100F9C00E270A2F14103372B00F2A080DFE803F0EE
:100FAC005E9E9E9E5E5E5E9E9E9E9E9E9E9E9E9E55
:100FBC009E9E9E9E9E9E9E4F9E9E9E9E9E9E9E9E94
:100FCC005E9E4F3A5E5E5E9E3A9E9E9E9E874F93BD
:100FDC009E9E939E4F9E9E4F6378062262F3C6039D
:100FEC0063700130D2E76378072262F3C603637043
:100FFC000130CBE76378082262F3C60363700130DB
:10100C00237843F002032370C0E763786FF3C603C1
:10101C006370BBE7A378012161F30203A3706378CB
:10102C0003F07803402B10D0632A13D02378C3F33A
:10103C004002154365F34103237002B070BDA378E1
:10104C00022161F30203A370E9E7217841F0010169
:10105C002170E9E71D1E18BF0125E7E7A3780421DD
:10106C0061F30203A370612A1AD0412A16D0002220
:10107C00637862F3C7136370DBB294F90120002A22
:10108C0031DB03F07803182B0CD0002BCED0402B87
:10109C00CCD0237843F001032370C7E70122E7E7A4
:1010AC000122E5E763786FF3C6036370BEE7A378AC
:1010BC00032262F30203A370637803F07803402BDE
:1010CC00B4D10125B2E7A378032262F30203A37023
:1010DC00637813F0780FA9D00125A7E7237843F0A4
:1010EC0001032370A2E70125A0E700BF2DE9F04F13
:1010FC0087B017461E46DDF8449002460B1E07DBF0
:10110C00397811F0080F14D02B211098017002E0DF
:10111C002D211098017097F80380C3F30A54C3F380
:10112C001303049205935CB952EA030128D1002100
:10113C0007E011F0100FEED0202110980170EAE7B3
:10114C00002140F2FF7084421CD0B8F1460F59D0F8
:10115C00DB0243EA5253D2020492059323F000437C
:10116C000593224343EAE473134307D000294DD17E
:10117C00A4F2FE34059B43F000430593002566E082
:10118C000121DEE7134322D1A8F14108B8F1190F70
:10119C0011D8492389F800304E2389F8013009F120
:1011AC000302462389F802303B786FF386133B70B9
:1011BC00129B1A6074E1692389F800306E2389F858
:1011CC00013009F10302662389F80230ECE7A8F13B
:1011DC004108B8F1190F0AD84E2389F80030412282
:1011EC0089F8012009F1030289F80230DCE76E234B
:1011FC0089F80030612289F8012009F1030289F88D
:10120C000230D1E74FF06608A2E7013C049B059A37
:10121C00DB18524104930592002AF6DAA8E7059BE5
:10122C00049A520842EAC3725B0804920593214661
:10123C000134B3F1333FF2D29C0044EA9274900033
:10124C00821843EB0403049205938C1C013D14F1AA
:10125C00020FE4DB14E0049B0233059A42F1000216
:10126C000493059204A805F09DFC013C01350499FA
:10127C00059B49185B4104910593013C002BF6DA60
:10128C00002CE8DCC4F10401059A1C34A1F1200007
:10129C00049BCB4002FA04F4234322FA00F00343EC
:1012AC00CA4004930592B8F1670F14D0B8F1470FF8
:1012BC0011D04FF0000BB8F1660F2AD006F1010ADD
:1012CC00102303939A4500DD9A4600224FF00063E9
:1012DC00CDE9002329E015F1030F01DBB54211DD47
:1012EC00A8F102085FFA88F8002E00DD013E3B7879
:1012FC00C3F3401B13F0200F08D1002EDBDD4FF0A1
:10130C00010BD8E7761B4FF06608F0E74FF0000BA7
:10131C00D1E715EB060AD3D5102303934FF0000A3F
:10132C00D3E7684605F059FCA2460AF1FF34BAF13E
:10133C00000FF6D1049B009A9B18059A019942EB79
:10134C000102049305924FF0FF3199426FF0704304
:10135C00934106D3B8F1660F38D1002D31DD4C46E0
:10136C000BE004A805F039FC0135F3E703A904A848
:10137C0005F03FFC04F8010B013D002D02DD039B41
:10138C00002BF3DC7D6055463B7813F0200F01D128
:10139C00002E02DD2E2304F8013B002D33DA002E43
:1013AC0031DD6B427B609E4200DA7E607B68F61A10
:1013BC00002BD4BF00230123BA7863F34512BA7013
:1013CC0021E04C46302304F8013BDDE703A904A8D7
:1013DC0005F00FFC4C4604F8010B302800D0013D01
:1013EC003B7813F0200F01D1002E0CDD09F1020423
:1013FC002E2389F8013006E003A904A805F0F9FBB7
:10140C0004F8010B013E002E02DD039B002BF3DCE4
:10141C00BE60BBF1000F09D00023BB6023461C4605
:10142C0013F8012D302AFAD02E2A3DD0B8F1650FD1
:10143C0002D0B8F1450F26D184F80080002D35DBA1
:10144C00A21C2B236370632D0CDD1E4981FB05311F
:10145C00EB17C3EB611303F1300102F8011B64219C
:10146C0001FB1355184981FB0531EB17C3EBA103A5
:10147C0003F13001144604F8021B03EB8303A5EBC4
:10148C004303303353707B68002B14DD4FF0010A9B
:10149C00BB786AF38613BB70129B1C60002323700D
:1014AC00484607B0BDE8F08F1C46BFE76D42A21C52
:1014BC002D236370C7E7BB68002BE9DD4FF0010AF1
:1014CC00E6E700BF1F85EB51676666662DE9F04FB6
:1014DC0097B006460D461746059300243878002829
:1014EC0000F05A83252807D001372946B047002839
:1014FC00C0F253830134F1E70023089309930A9354
:10150C000B930C930D930DF1550207928DF81B3034
:10151C0039460AA8FFF73AFC81469DF8293013F0AA
:10152C00010F00F0A180059B1A1D0592D3F80080D5
:10153C00B8F1000FC0F28F809DF8293013F0040F22
:10154C0000F0A580059B1A1D0592D3F800A0BAF1F6
:10155C00000FC0F2938000230B930C939DF82A305C
:10156C0003F00703042B00F09B809DF82A3003F056
:10157C0007039DF82910C1F3C301012B00F0A080D3
:10158C00022B00F0E580042B00F03681032B00F0D9
:10159C004D819DF8282012F0030F40F04D819DF8ED
:1015AC002B30253B532B00F25A81DFE813F051010D
:1015BC005801580158015801580158015801580157
:1015CC005801580158015801580158015801580147
:1015DC005801580158015801580158015801580137
:1015EC0058015801580115025801580158011502AB
:1015FC00150215025801580158015801580158019B
:10160C005801580158015801580158015801580106
:10161C0058015801B101580158015801580158019D
:10162C00580158015801150258019D01A5011502D8
:10163C00150215025801A50158015801580158010D
:10164C00F301B101DB01580158015A015801B101F4
:10165C0058015801B1019DF8283043F004038DF86E
:10166C002830C8F1000867E79DF92830002B02DB11
:10167C004FF0FF3860E7DDF82C805DE79DF82930EE
:10168C006FF341038DF829304FF0FF3A63E713F005
:10169C00020F02D0DDF830A05DE74FF0FF3A5AE7B9
:1016AC009DF8293013F0020F7FF45FAF9DF92930BC
:1016BC00002B02DB4FF0060A57E74FF00D0A54E7F8
:1016CC00CB1E042B04D8DFE803F00B1D29353500A5
:1016DC00059B1A1D05921B68DA170893099206E000
:1016EC00059B1A1D05921B68DA17089309920129AC
:1016FC0028D002297FF44DAFBDF92030DA170893BA
:10170C00099246E7059B073323F0070303F1080210
:10171C000592D3E90023CDE90823E8E7059B0733BD
:10172C0023F0070303F108020592D3E90023CDE966
:10173C000823DCE7059B1A1D05921B68DA17089332
:10174C000992D4E79DF8203008930023099320E7F1
:10175C00CB1E042B04D8DFE803F00B1F35414100EE
:10176C00059B1A1D05921B680893002309931EE024
:10177C009DF82B30632B07D0059B1A1D05921B6817
:10178C0008930023099312E0059B1A1D05921B6810
:10179C000893002309930AE0059B073323F0070302
:1017AC0003F108020592D3E90023CDE908230129AE
:1017BC001CD002297FF4EDAEBDF820300893002335
:1017CC000993E6E6059B073323F0070303F10802B0
:1017DC000592D3E90023CDE90823E8E7059B1A1D00
:1017EC0005921B68089300230993E0E79DF82030CD
:1017FC00089300230993CCE608290BD0059B0733EB
:10180C0023F0070303F108020592D3E90023CDE985
:10181C000823BEE6059B073323F0070303F10802F8
:10182C000592D3E90023CDE90823B2E6059B1A1DE6
:10183C0005921B680893ACE64B463A46294630465F
:10184C0005F05FFA0028C0F2A88104444F4645E633
:10185C0029462520B0470028C0F29F8101344F460D
:10186C003CE6089FBAF1000F3ADB5146384605F0CA
:10187C0039FB38440790002FF1D0079BDB1B9DF8F8
:10188C001B0000B101339DF82A1011F0100F00F06D
:10189C00B28002330B9A134411F0400F01D00C9A12
:1018AC001344B8F1000F40F3BF80A8EB03089DF878
:1018BC00283013F0040F40F0B78013F0400F00F005
:1018CC00A080002800F0A0802946B0470028C0F274
:1018DC006481013400238DF81B304FF0300A95E001
:1018EC00384605F0F6FAC4E7089B8DF83C300DF14C
:1018FC003D0307930FAFBEE712F0080F22D02B2346
:10190C008DF81B30089A099B002B22DB0892099357
:10191C00079B00930FAB0AAADDE9080105F087F9D4
:10192C000746BAF1000FA6DB079BDB1B9DF82820AE
:10193C006FF386128DF828209A459CD9AAEB0303E5
:10194C000B9398E712F0100FDCD020238DF81B308E
:10195C00D8E72D218DF81B10524263EB43030892FC
:10196C000993D5E7089818B98D4F0797053F82E77B
:10197C00079B00930FAB0AAA002105F058F9074604
:10198C009DF82A3043F010038DF82A3078238DF817
:10199C002B30C6E7089A9DF82930C3F3C303072BF5
:1019AC003FF65DAFDFE803F00406080A0C101416CE
:1019BC00146054E7147052E7148050E714604EE73B
:1019CC00E317146053604AE7E3171460536046E76B
:1019DC00146044E7146042E707AB02930FAB01932A
:1019EC000DF11B03009353460AAADDE90801FFF72A
:1019FC007DFB07463FE711F0080F3FF44BAF013377
:101A0C0048E74FF0200A01E04FF0300A434603F15B
:101A1C00FF38002B08DD29465046B0470028C0F29D
:101A2C00BC8001344346F2E79DF81B0028B12946DF
:101A3C00B0470028C0F2B18001349DF82A3013F071
:101A4C00400F6AD09DF92930002B0BDA38787028BA
:101A5C004CD001372946B0470028C0F29E80013493
:101A6C00F4E701343878A0F13003092B05D801379D
:101A7C002946B0470028F4DA8FE0DDF82CA09DF859
:101A8C002A3013F0200F0ED038782E281AD0387840
:101A9C00A0F13003092B29D801372946B04700287B
:101AAC007BDB0134F3E70AF1FF3BBAF1000F07DDF2
:101ABC0029463020B04700286FDB0134DA46F2E7C4
:101ACC00DA46E1E701372946B047002865DB0134E7
:101ADC0001E00134DA460AF1FF3BBAF1000FD6DD22
:101AEC0029463020B0470028F3DA56E00C9B03F16E
:101AFC00FF3A002B07DD29463020B04700284CDB8D
:101B0C0001345346F3E7079B3A462946304605F025
:101B1C00F8F8002841DB044433E09DF82A30C3F385
:101B2C000012C3F3C003134305D029463020B0473D
:101B3C00002832DB01349DF82A3013F0100F06D048
:101B4C0029469DF82B00B047002826DB01340B9B5F
:101B5C0003F1FF3A002B07DD29463020B04700285F
:101B6C001BDB01345346F3E7079B3A4629463046C4
:101B7C0005F0C7F8002810DB044402E0013408F13A
:101B8C00FF38B8F1000F05DD29462020B0470028AA
:101B9C00F4DA02E04F46A1E4204617B0BDE8F08F1E
:101BAC002184000070B52A4B1D7D05F01F03012216
:101BBC009A406909274B03EB8103D043BFF35B8F3A
:101BCC0053E8001F01EA000443E80046002EF7D159
:101BDC00BFF35B8F0A4200D170BD1F4805EB450275
:101BEC009300C1181D4A72B14978C05C05F0E0F948
:101BFC004FF02003EFF3118683F31288BFF36F8F3E
:101C0C00174B1C6810E0002383F31188BFF36F8F10
:101C1C00EEE70F4B1B7D03EB430399000E4B585C17
:101C2C0090470CB1246824B11CB1A268002AF0D1F1
:101C3C00F7E786F31188BFF36F8F074805EB45056F
:101C4C00AA008118002383504B608B60C4E700BF4F
:101C5C00200D00202007002010070020BD6F000081
:101C6C000807002070B50446574B1D7D6A09BFF369
:101C7C005B8F564B53F82230BFF35B8F05F01F027E
:101C8C00134113F0010F15D005EB4503504A12F820
:101C9C002330F3B1B4F1FF3F31D103F005FF4FF026
:101CAC002003EFF3118683F31288BFF36F8F494B38
:101CBC001C6845E00146284600F0A4F80028E3D053
:101CCC0005EB4503424A02EB830307C883E8070090
:101CDC00DAE705F01F02012393406D093B4A02EB42
:101CEC008505DB43BFF35B8F55E8002F1A4045E8B1
:101CFC0000210029F8D1BFF35B8F002062E005EBD7
:101D0C004503334A02EB83039868410CC003324B02
:101D1C00C018324A4FF0000341F10001FEF756FDA6
:101D2C000121201A06F0A9F9B7E7274B1B7D03EB1D
:101D3C004303274911F8230090470CB1246824B1C0
:101D4C001CB16268002AF0D1F7E786F31188BFF363
:101D5C006F8F05F01F03012199406B09204A02EB9C
:101D6C008303BFF35B8F53E8002F0A4343E8002043
:101D7C000028F8D1BFF35B8F1A4B4BB1144B05EB1A
:101D8C00450203EB8201497813F8220005F004F9AF
:101D9C00FFF708FF05F01F03012404FA03F36D0994
:101DAC000A4A02EB8505DB43BFF35B8F55E8002F36
:101DBC001A4045E800210029F8D1BFF35B8F04F0ED
:101DCC0095F8204670BD00BF200D00201C07002098
:101DDC0010070020080700203F420F0040420F0070
:101DEC0020070020A56F0000BFF35B8F044B53F856
:101DFC002000BFF35B8F003818BF0120704700BF75
:101E0C00240700202DE9F04182B00E4601A900F014
:101E1C0043F8441E24B207E0B6F1FF3F32D04044F1
:101E2C00B0422FD9013C24B2002C2ADB019B04EBDD
:101E3C00440203EB820513F82200FFF7D5FF0028BC
:101E4C00F0D16868410CC003104FC019104A4FF014
:101E5C00000341F10001FEF7B9FC8046AB68590C58
:101E6C00DB03D8190A4A4FF0000341F10001FEF7D9
:101E7C00ADFC084B1B68B3F1FF3FCDD08342CBD8F0
:101E8C00D0E70025284602B0BDE8F0813F420F00A4
:101E9C0040420F000400002008B9024B0B600020E8
:101EAC00704700BF24840000014910220A6070476B
:101EBC0010ED00E072B6404080F31188BFF36F8FD5
:101ECC00BFF34F8F30BF62B6BFF36F8F704700BF49
:101EDC0072B6494081F3118820BF80F3118862B635
:101EEC00704700BF40B2002807DB00F01F0240091A
:101EFC0001239340014A42F82030704700E100E092
:101F0C0040B200280CDB00F01F0240090123934073
:101F1C002030044A42F82030BFF34F8FBFF36F8F4D
:101F2C00704700BF00E100E04209054B53F8222046
:101F3C0000F01F00012303FA00F01040704700BFAF
:101F4C0000E100E0013140B2002808DB4901C9B2D0
:101F5C0000F1604000F5614080F80013704700F01C
:101F6C000F004901C9B2014B1954704714ED00E040
:101F7C0030BFFFF7FDBF00BF08B50B4B0B4A22F07B
:101F8C007F029A60BFF34F8FBFF36F8FD3F8882017
:101F9C0022F47002C3F8882003F028F804F026F924
:101FAC0000F012FA03F080F800ED00E000000000F1
:101FBC000A4A9368C3F8A80009490968C3F8AC1029
:101FCC0008494B6843F080534B60002383F311881E
:101FDC00BFF36F8F9368D3F8AC007047200D0020CF
:101FEC006C85000000ED00E013498A684FF030006A
:101FFC001044EFF3098C80E8F01F202080F3128846
:10200C00BFF36F8F0D4F4FF00066CA698A603E6058
:10201C00D2F8A8000023C2F8A83080F3118804B5C8
:10202C00104600F07BFABDE8044002F1300090E865
:10203C00F01F8CF309887047200D002004ED00E0A0
:10204C001EF0040F0CBFEFF30880EFF309808169D9
:10205C0011F8021C0229FFD001B504F071FE01BD7C
:10206C0010B4A2F120040E4942F8081C21F0010121
:10207C0042F8081C42F8203C019B42F81C3C029B95
:10208C0042F8183C039B42F8143C4FF0807342F822
:10209C00043C04650023C0F8A83010BC704700BF96
:1020AC008D6A0000124B9A6802B310F1160F11D012
:1020BC00D2F89830A3F1200C844505D8834205D979
:1020CC008B4205D800210BE0002109E0002107E03C
:1020DC00012105E0D2F898308B4294BF00210121F8
:1020EC0009B900207047D2F898007047002070475B
:1020FC00200D002008B50D461446084B986000F0E2
:10210C000DFA204685F30988002163B681F3118806
:10211C00BFF36F8F0022002304F0B2FC200D0020CF
:10212C0001B572B60B4A906900281EBF002191615F
:10213C0005F082FD62B6EFF30580A0F110004FEAC6
:10214C00C0000549014409C99847BDE8014003494D
:10215C0008470000200D0020FC8100006D210000CC
:10216C00044B9968D869884203D003494FF08052D8
:10217C000A607047200D002004ED00E010B51446F5
:10218C00124B9A6A9A6A9B6A13F4007F0BD00F4B1E
:10219C009A6B9B6A13F4004F05D021B10B4A936ADA
:1021AC0023F400439362094B9A6A9B6A13F4807F71
:1021BC0001D1064B9B6A054A936A43F47F439362B1
:1021CC00012104F0CFFD2070002010BD00ED00E0D7
:1021DC00074B9A6A9A6A9A6A9A6A9A6A9A6A9A6A85
:1021EC006FEA02426FEA12429A620020704700BF07
:1021FC0000ED00E070B505461646254B9A6A9A6AC2
:10220C009B6A13F0020F0CD0214B586B9B6A13F096
:10221C00800F2FD039B11E4A936A23F0800393624A
:10222C0001E06FF015001A4B9A6A9A6A9B6A13F0D8
:10223C00100F04D1164B9C6A14F0020404D0144BFA
:10224C005C6814F4006418D1114B9B6A13F0200FD6
:10225C0004D00F4A536A23F4005353620C4A936A16
:10226C0043F0FF0393620121284604F07BFD30709C
:10227C00204670BD6FF01500D5E72946FFF712FF19
:10228C0004460028E0D080F309880224DCE700BF74
:10229C0000ED00E008B5844600230B701B4BD86A98
:1022AC0010F002002ED1DB6A002B2CDB174BDB6A03
:1022BC0013F0804328D0DCF8183033F8022C4DF69C
:1022CC0002739A420FD0114B93F8283073B90F4B0D
:1022DC0093F8293083B90D4B5B8D9BB29BB1604653
:1022EC00FFF776FF0FE0DCF800000CE00A46012156
:1022FC006046FFF77FFF06E00A4601216046FFF7C4
:10230C003DFF00E0002008BD1846FCE700ED00E0B2
:10231C0070B58AB00C46224B5968C1F308010023F2
:10232C0083F31188BFF36F8F02F07F43B3F17F4FBC
:10233C0015D102F00C03082B14D012F0080F0BD09F
:10234C0000260DF12702204604F011FD05469DF8EC
:10235C00273053B10AB070BD04460126F1E70026C0
:10236C003446EEE700263446EBE72022214601A84E
:10237C0004F0C2FD4EB1089BC3F308025AB96FEAD0
:10238C0053236FEA4323089305E0089B23F4FF7360
:10239C0023F00103089301A9284604F0CDFCD9E7EA
:1023AC0000ED00E0024A536943F01003536170479B
:1023BC0000ED00E0EFF30880EFF3098101B5724600
:1023CC00FFF7A6FF01BD00BF002206E002F00F01DF
:1023DC00094B0B44202119760132262A0ADC53B210
:1023EC00002BF3DB03F1604303F56143202183F8F9
:1023FC000013F1E7704700BFFCEC00E0002080F315
:10240C001488BFF36F8F05F091FE00200D49086012
:10241C00BFF34F8F0C4880F3088800F02DF8202074
:10242C0080F3118809484FF40261401880F3098841
:10243C00EFF314800221084380F31488BFF36F8FED
:10244C00FFF79AFD94ED00E0001A0020801B00209D
:10245C00084BD3F89000C0F30720002306E0054A90
:10246C00C2F898300021C2F8A01001338342F6DB89
:10247C00704700BF00ED00E010B572B6002484F385
:10248C001388FFF7E5FF234608E003F120010E4A0D
:10249C004FF0FF3042F821000133DBB2072BF4D9A7
:1024AC00002308E003F16001074A4FF0FF3042F8C7
:1024BC0021000133DBB2072BF4D962B6BFF34F8F87
:1024CC00BFF36F8F10BD00BF00E100E008B50A4BF1
:1024DC009B68834202D003F04DFE08BDEFF30583E9
:1024EC00002BF8D0054B5A6842F080525A605A6A59
:1024FC0022F400425A62EEE7200D002000ED00E0CD
:10250C0008B5034B034A0121034804F0B6FC08BD8F
:10251C0000000120000000202484000008B5D0F841
:10252C009830203B0448036020234360034B8360B6
:10253C00012104F0A6FC08BD4007002000000B158B
:10254C00084AC2F898000B6823F01F03034343F0BA
:10255C001003C2F89C308B6843F00103C2F8A03022
:10256C00704700BF00ED00E010B5034C012322784A
:10257C0004F05BFC207010BD660D002008B5002334
:10258C00094A127804F051FC10F1160F0AD00346D8
:10259C0006E0064AC2F898300021C2F8A0100133B8
:1025AC00072BF6DD08BD00BF660D002000ED00E036
:1025BC00044B0522C3F89420BFF34F8FBFF36F8FEA
:1025CC00704700BF00ED00E0BFF35F8F024B0022AD
:1025DC00C3F89420704700BF00ED00E038B50E4BF7
:1025EC001D68082D15D8FFF7EFFF002409E00A4BF2
:1025FC00596804EB4402930019442046FFF7A0FFEE
:10260C000134A542F3D8054B1D70FFF7D1FF002014
:10261C0038BD4FF0FF30FBE740840000660D002012
:10262C00014B1860704700BF080000204FF02003DA
:10263C00EFF3118283F31288BFF36F8F01230649E6
:10264C00C1F840354FF08041C1F8783582F31188DC
:10265C00BFF36F8F0020704700E00140C0B24FF015
:10266C008042C2F81C05BFF34F8F0549CA6802F4BB
:10267C00E062044B1343CB60BFF34F8F00BFFDE709
:10268C0000ED00E00400FA0530B108B58001034B01
:10269C0043F00103984708BD704700BFC08300009A
:1026AC00004870479C070020034BC01A8010034B56
:1026BC0003FB00F0704700BF5C070020B76DDBB672
:1026CC0038B505460C46FFF7EFFF0146402203489C
:1026DC0004F0E9FC01462846A04738BD9C81000067
:1026EC0030B583B005460C46FFF7DEFF01464023AC
:1026FC0000932346054A064804F0EFFC011E01DB5B
:10270C0003B030BD2846A047FAE700BF2F71000088
:10271C009C81000010B54FF02003EFF3118483F37C
:10272C001288BFF36F8F134A136843F002031360D0
:10273C0013F0010F08D1002384F31188BFF36F8FBE
:10274C009BB904F0F6FC10BD4FF08043D3F80C2479
:10275C00D3F80C3412F0010F01D10023ECE7FFF792
:10276C009FFF04F07BFC0123E6E70021024804F004
:10277C0088FCE8E7AC0700209C81000008B50A4BF8
:10278C00BFF35B8F53E8002F22F0020143E80010E7
:10279C000028F7D1BFF35B8F12F0010F00D008BDFA
:1027AC0004F0CCFCFBE700BFAC07002000B585B003
:1027BC00CDF800D0CDF804D000230293012303936D
:1027CC006B46074A04F0A5FC002805DB4FF4804259
:1027DC000023684602F05EFF05B05DF804FB00BF05
:1027EC005371000008B5074B1B781BB1002004F097
:1027FC00E3FF08BD4FF4A57005F06EFC014B012200
:10280C001A70F3E7670D002070B505460022012110
:10281C001046FFF797FB134801F0C4FA124B98428D
:10282C001CD1286900F092F904F0B7FF0024012CA8
:10283C0012D82146284604F0C1FB064621462846FC
:10284C0004F0C7FB094904F07CF8002805DB0123E0
:10285C00B3601C44E4B2EAE7002070BD6FF00400E2
:10286C00FBE700BF7D2800000000AD0B908400004A
:10287C0008B5012810D0032815D000B108BD0021DF
:10288C000A4804F09BFB836813F0070FF6D1002174
:10289C00064804F0F6FBF1E704F074FC0121034850
:1028AC0004F0EFFBEAE700F067F9E7E79C81000032
:1028BC0070B5054605F089F920B9214B1B789BB101
:1028CC00002300E001231C4683B14FF02003EFF3FB
:1028DC00118683F31288BFF36F8F6CB94FF080436E
:1028EC000222C3F8082307E00123ECE70026F4E7F3
:1028FC00CCB13046FFF7ECFA4FF08042D2F81834E6
:10290C0003F00303D2F8182412F4803F10D10022F4
:10291C00002AEDD00BB1012DEAD15CB186F3118800
:10292C00BFF36F8F70BD2120002103F0F1FBE3E7B3
:10293C000122EDE74FF080430222C3F80423F1E7B4
:10294C006A0D002008B5C1B2014804F042FB08BD75
:10295C009C81000010B50446104B0121BFF35B8F26
:10296C0053E8002F43E800100028F9D1BFF35B8F28
:10297C001AB1631E012B0DD910BD094804F029FBB7
:10298C00084900234B608B60CB6001238B6003F004
:10299C00F5FFEEE72046FFF78BFFEDE7B0070020D1
:1029AC009C8100004C07002010B582B004460E4BF1
:1029BC0018688368DB683921984730B90A4B186866
:1029CC0083681B696A460C21984750B9019B074ADA
:1029DC0082FB0312DB17C3EB2243009A03EB820347
:1029EC00238002B010BD00BFCC07002083DE1B4348
:1029FC0008B5024B186804F0B2FB08BDC8070020EC
:102A0C0000B583B000220023CDE900234FF400323F
:102A1C000023054803F0A6FDFFF7EAFF034B002255
:102A2C001A6003B05DF804FB90010020B40700208D
:102A3C0008B501F0CBF9024B01221A7008BD00BF9A
:102A4C00680D002008B5054B1B681BB1044802F04B
:102A5C006BFF08BDFFF7ECFFFBE700BFCC070020C6
:102A6C000C00002000B583B00023ADF806300DF14A
:102A7C000600FFF799FF80B10023124A1370114A28
:102A8C0012780AB1012B13DD0F4BBDF806201A800A
:102A9C00FFF7CEFF03B05DF804FBBDF906300A4A20
:102AAC00B2F900209B1A002BB8BF5B421BB2E6E7C1
:102ABC00013A044B1A70054A136801331360FFF78F
:102ACC009FFFE7E7680D0020640D0020D40700206D
:102ADC0008B5034A0349044B186804F044FB08BDCD
:102AEC00512A0000B8070020C807002008B5094B80
:102AFC000122BFF35B8F53E8001F002903D143E889
:102B0C0000200028F7D1BFF35B8F01D1FFF7E0FF66
:102B1C0008BD00BFB407002008B5034B00221A7093
:102B2C00FFF7E4FF08BD00BF680D002008B505489D
:102B3C00054B186005F008F808B1002008BD6FF0CF
:102B4C001200FBE7E4810000CC070020034B186067
:102B5C000023034A1360034A13607047C807002020
:102B6C00D0070020D407002008B5024805F0BAFAB7
:102B7C0008BD00BF9001002008B5034A136801335B
:102B8C001360FFF73DFF08BDD007002010B5044CC3
:102B9C002046FEF739F82046FFF742FD002010BD15
:102BAC00B12B000070B582B006468DF807000224E8
:102BBC00EFF311854FF0200181F3118801220DF103
:102BCC000701002002F054F985F3118838B9094B3C
:102BDC001B785BB13CB104F0D9FA013CE8E7054B3A
:102BEC0001221A7002E0034B00221A70304602B028
:102BFC0070BD00BF690D002008B902487047002065
:102C0C00704700BFB4810000F0B585B00E46194680
:102C1C0043681B7B06F01F0545EA4315B2F5001F00
:102C2C0022D007461446002302930393104604F067
:102C3C0030FB8DF808007B689968F14011F0010FAA
:102C4C0002D1B4F1A07F14D0002302AA1946284661
:102C5C0001F0BAFA194B98422CD10121284601F007
:102C6C007DFC002005B0F0BD284601F0CFFC002013
:102C7C00F8E705F01F0303F5E0734FF0A04252F89C
:102C8C00233013F0010FDFD10DF10701284601F0BD
:102C9C0009FC0B4B984203D00DF107030393D3E7C8
:102CAC000DF1070001F052FC044B9842F4D06FF088
:102CBC000B00D7E76FF00400D4E700BF0000AD0BAA
:102CCC000400AD0B30B583B004460DF1070101F0E3
:102CDC00E9FB0546204601F0C3FC0B4B98420FD193
:102CEC009D4205D0084B984207D1002003B030BD5F
:102CFC009DF8070001F022FCF4E76FF00400F5E703
:102D0C006FF00400F2E700BF0000AD0B2DE9F043BB
:102D1C0087B0D0F8048098F80C3001F01F0545EA14
:102D2C004315002A44D00C461746002603960496F9
:102D3C000DF11701204601F0B5FB8146334603AA7D
:102D4C003146284601F040FA304B98425BD1994508
:102D5C0036D017F4003F43D00DF10301384604F090
:102D6C001FFA064640BB9DF803308DF8043017F46B
:102D7C00803F0CBF012300238DF80530384604F04A
:102D8C0055FA8DF8060017F4002F1ED0D8F8043031
:102D9C00012101FA04F4C3F80845002201A92846D0
:102DAC0001F0C4FA194B984206D06FF0150603E0F7
:102DBC002846FFF787FF0646304607B0BDE8F0838C
:102DCC009DF8170001F0BAFBC3E717F4802FE4D08D
:102DDC00D8F80420012303FA04F4C2F80C45DCE70C
:102DEC00384604F023FA8DF8080000231A4602A98D
:102DFC00284601F0E9F9054B984201D10026DBE7A2
:102E0C006FF01506D8E76FF01506D5E70000AD0B8F
:102E1C0008B501F089FB08B1002008BD01F05AFB90
:102E2C00084B98420AD10021074801F035FB0022DB
:102E3C0005210620FFF786F80020EEE76FF004006E
:102E4C00EBE700BF0000AD0B3D73000008B5436815
:102E5C001B68D3F80805D3F80C1501F07DFF044B63
:102E6C00984201D1002008BD6FF00F00FBE700BFB6
:102E7C000000AD0B10B504692346084A04F120018B
:102E8C00406801F099FE064B984204D1012384F866
:102E9C003030002010BD6FF00400FBE7BD300000A7
:102EAC000000AD0B2DE9F04F8FB00790884691468E
:102EBC000169039142680292D1F838A012890592F7
:102ECC00002209920A920B920C920D928DF82530E9
:102EDC0091F8303023B9FFF7CDFF0028C0F2E18024
:102EEC004FF0FF324FF0FF33039C204602F0D2FB31
:102EFC0023461033184606930022002302F0CAFB27
:102F0C00029801F0A3FE00263446049643E000220A
:102F1C0001920AB9002C6AD020466A68A118DDF823
:102F2C0014C0614500F2B18013F0010F59D06B68E9
:102F3C001C44A4B2019B6BBB002C6CD158F80B3019
:102F4C000C936B680A932B7A03F001028DF8242002
:102F5C0013F0020F63D0002209A9029801F0E2FEDF
:102F6C00524B98425DD14FF480420023069802F0F8
:102F7C0091FB049000285FD1039B5A6B4B4B9A42F8
:102F8C0040F08B802B7A13F0010F02D00C9B9A45EA
:102F9C0065D000243E464E456DD206EB46054FEA01
:102FAC00850B08EB85052B7A13F0080F60D1771C85
:102FBC004F45ACD213F0020F0DD107EB470208EBD3
:102FCC008202127A12F0040F07D15A4012F0010F4C
:102FDC0005D000229CE700229AE7002298E7012204
:102FEC0096E758F80B10504403F086FF9FE713F058
:102FFC00010F9FD158F80B1001F06043B3F1005F43
:10300C0098D06A68029B5B899A4242D8504603F07A
:10301C0073FFAC888EE7CDF830A00A9493E720229A
:10302C009AE70B33984203D06FF00403049322E029
:10303C006FF00F0304931EE0029801F017FE07983F
:10304C00FFF704FF6FF00403049314E0A41AA4B276
:10305C000AEB040158F8000003F04EFF013E06EBAA
:10306C004603980008EB83035A689442EED290E72B
:10307C006FF085030493029801F0F8FD039802F0B9
:10308C00E5FA04980FB0BDE8F08F6FF01B030493C2
:10309C00F1E76FF015030493EDE76FF0040304936D
:1030AC00E9E76FF004030493EBE700BF0000AD0BFE
:1030BC0008B50378012B0CD0022B0DD013B1084BA3
:1030CC004B6301E0074B4B6301F1100002F0BEFAB9
:1030DC0008BD054B4B63F7E7044B4B63F4E700BFAC
:1030EC000100AD0B0000AD0B0100AE0B0200AE0BEE
:1030FC00014B01221A60704700C0004003690C2983
:10310C0010D15B6A094901FB03F3094880FB0310EA
:10311C00D917C1EBA0411160064800FB1133536075
:10312C00002070476FF08500704700BF90D00300FF
:10313C0083DE1B4340420F002DE9704384B00469C9
:10314C00A36A7BB3392901D00C292ED104F11006C6
:10315C004FF0FF384FF0FF3942464B46304602F0F5
:10316C00A7F90025019502950395114B01930323B3
:10317C0002936946A06A03F001FC42464B46204686
:10318C0002F088FAA06A03F055FC0A4BD3F8082524
:10319C00626201225A60304602F014FA284604B0EA
:1031AC00BDE870836FF00A00F9E76FF08500F6E771
:1031BC00FD30000000C0004010B504690020FFF78E
:1031CC00C1FBA0624FF0FF320021204604F057FDF6
:1031DC0004F1100004F04CFD002201210C20FEF73C
:1031EC00B1FE0C20FEF77EFE024B0122C3F8042335
:1031FC00002010BD00C0004008B50069044B00223F
:10320C00C3F80021D3F8003102F020FA08BD00BF4A
:10321C0000C0004021F07F4100F5A870014B43F83D
:10322C00201070470010014000F5A870014B53F8B6
:10323C0020007047001001404FF480338340024A55
:10324C00C2F84433704700BF001001404FF4803384
:10325C008340024AC2F84833704700BF0010014057
:10326C00014BD3F8040570470010014010B5012341
:10327C0083406FEA030C104ABFF35B8F52E8001FC8
:10328C0001EA0C0E42E800E4002CF7D1BFF35B8F8F
:10329C004FF4803202FA00F002F1804202F58052C3
:1032AC00C2F80803BFF35F8FBFF36F8F0B4214BFDD
:1032BC000120002010BD00BF2408002070B504467A
:1032CC0004F0BEF805464FF48033A340174AD2F8F9
:1032DC000423134205D10026284604F0BAF83046E0
:1032EC0070BD0123A340DB43114ABFF35B8F52E84F
:1032FC00001F01EA030042E80006002EF7D1BFF3DD
:10330C005B8F59B904F150039B009BB203F18043CE
:10331C0003F588331B6813B1012300E001231E461B
:10332C00002BD9D0204604F07CF8D5E700100140E2
:10333C002008002001B9704701238340114ABFF3D4
:10334C005B8F52E8001F194342E8001CBCF1000FD0
:10335C00F7D1BFF35B8F4FF4803383400A4AC2F836
:10336C000433BFF35B8F094B1B68BFF35B8F23FAEE
:10337C0000F010F0010FDED0054B4FF40032C3F813
:10338C000021D8E72408002000100140200800206C
:10339C0000E100E02DE9F843074614461E461046AE
:1033AC00194604F04AF80546154B1A68A01A1C6019
:1033BC005E60A5F50013B3F5400F09D3002403F0AC
:1033CC0003F83846FFF730FFA8420ED0BDE8F8836B
:1033DC000C4B1B681A0A1B0615EB030842F100097B
:1033EC00094BC3E900890124E9E71CB13846FFF712
:1033FC0023FFEBE74FF400013846FFF70BFFF5E72F
:10340C00C804002028080020B004002038B50D4B5B
:10341C001C68250A2406BFF35F8FFFF721FF0346C4
:10342C00001945F10001B3F5801F0AD2064BD3E910
:10343C000023904271EB030303D210F1807041F131
:10344C00000138BD28080020B0040020F8B506465D
:10345C0014461D461046194603F0EFFF0746FFF7CA
:10346C00D5FFA04271EB05031DD2231A65EB0101B8
:10347C001B4A934271F100032FD21A4B03EB061334
:10348C00D3E90223AB4208BFA2421AD039463046D8
:10349C0003F0E4FF394603F0C0FF001945F10003C7
:1034AC0004461D460DE00123B3400F4ABFF35B8F6A
:1034BC0052E8001F194342E800100028F8D1BFF36E
:1034CC005B8F084B320103EB0616C6E902450699E1
:1034DC009950079B73600020F8BD6FF01500FBE757
:1034EC0001000001B80400202008002030B583B092
:1034FC0000231D4AC2F80835002B24DD1A4C022586
:10350C00C4F80453194B4FF40032C3F88021002245
:10351C0001211120FEF716FD1120FEF7E3FC01231B
:10352C00A3602360124A136000240194114B009392
:10353C00114A0023204603F0CCFF2846FFF70AFA75
:10354C00204603B030BD0D4A02EB03124FF0FF30A2
:10355C004FF0FF31C2E902014FF480329A40024928
:10356C00C1F804230133C7E70010014000E100E07B
:10357C0024080020A1330000FFFF7F00B8040020C6
:10358C002DE9F04782B00446FFF798FE10B902B05F
:10359C00BDE8F087FFF73AFF82460E4603F050FF76
:1035AC000546134B03EB0413D3E90289C24576EBB2
:1035BC0009030BD20026284603F04BFF002EE6D061
:1035CC00009742464B462046B047E0E7084A2301A5
:1035DC0002EB0411D6584F680020D0504FF0FF3248
:1035EC004FF0FF33C1E902232046FFF72FFEE2E73D
:1035FC00B804002010B50E4BD3F8043313F0020FAF
:10360C000DD00B4BD3F804314BB1094B0022C3F84E
:10361C000421D3F80431074A1368013313600024E2
:10362C00002C00DD10BD2046FFF7AAFF0134F7E7A0
:10363C00001001402808002010B582B0B0F1FF3F07
:10364C0006D0012806DDB0F5000F05DA441E04E0B3
:10365C000F48F8E7002400E00D4CFFF7D7FE0D4BA8
:10366C0019685B68401AB0F5000F00D300242044A1
:10367C00421CB2F5000F00D3054A00208A180190B5
:10368C000549009143F1000303F023FF02B010BD84
:10369C00FFFF7F00C8040020A133000008B5FFF72E
:1036AC00B5FE024B1B68C01A08BD00BFC804002041
:1036BC002DE9F04106460F469046002415E005F032
:1036CC003F05C8F80C5556F8242002F01F000121C4
:1036DC0001FA00F04FF0A042C2F808050A4656F86D
:1036EC00240003F029FF0134E4B2BC4280F0408195
:1036FC00A00056F82450C5F303232A0C192A00F213
:10370C00398101A151F822F0CB3600007D37000041
:10371C0093370000BD370000D3370000FD370000A1
:10372C002738000081390000813900008139000000
:10373C00813900003D380000553800008139000007
:10374C008139000081390000813900008139000085
:10375C008139000081390000813900008139000075
:10376C006D380000B1380000F53800003939000020
:10377C0005F03F05C8F814550022114656F82400F0
:10378C0003F0DAFEAFE705F03F05C8F8085556F828
:10379C00242002F01F00012101FA00F04FF0A0429A
:1037AC00C2F808050A4656F8240003F0C5FE9AE74D
:1037BC0005F03F05C8F810550022114656F82400B4
:1037CC0003F0BAFE8FE705F03F05C8F8085556F828
:1037DC00242002F01F02012101FA02F24FF0A04056
:1037EC00C0F80C25002256F8240003F0A5FE7AE759
:1037FC0005F03F05C8F80C5556F8242002F01F00C0
:10380C00012101FA00F04FF0A042C2F80C050A4663
:10381C0056F8240003F090FE65E705F03F05C8F864
:10382C0010550022114656F8240003F085FE5AE785
:10383C0005F03F05C8F8085503B9062300221146C8
:10384C00305803F079FE4EE705F03F05C8F80C55EB
:10385C0003B9062300221146305803F06DFE42E7EF
:10386C0005F03F05C8F8605556F8242012F4005FA7
:10387C000ED102F01F02012101FA02F24FF0A04119
:10388C00C1F80C2501221146305803F055FE2AE7E9
:10389C0002F01F02012101FA02F24FF0A041C1F81F
:1038AC000825EFE705F03F05C8F8645556F82420C5
:1038BC0012F4005F0ED102F01F02012101FA02F294
:1038CC004FF0A041C1F80C2501221146305803F0ED
:1038DC0033FE08E702F01F02012101FA02F24FF059
:1038EC00A041C1F80825EFE705F03F05C8F8685579
:1038FC0056F8242012F4005F0ED102F01F020121B1
:10390C0001FA02F24FF0A041C1F80C250122114638
:10391C00305803F011FEE6E602F01F02012101FA15
:10392C0002F24FF0A041C1F80825EFE705F03F0582
:10393C00C8F86C5556F8242012F4005F0ED102F032
:10394C001F02012101FA02F24FF0A041C1F80C252F
:10395C0001221146305803F0EFFDC4E602F01F02BD
:10396C00012101FA02F24FF0A041C1F80825EFE75E
:10397C00002001E06FF08500BDE8F081BFF34F8FB0
:10398C000549CA6802F4E062044B1343CB60BFF3F1
:10399C004F8F00BFFDE700BF00ED00E00400FA050B
:1039AC00024BD3F80034002BFAD0704700E00140F2
:1039BC0008B5034BC3F80405FFF7F2FF08BD00BFC1
:1039CC0000E00140014B024A1A6070475800002089
:1039DC000090D00338B503F0CAFD40B14FF08053CE
:1039EC00D3F82433C3F304237D4AC2F8403503F0E3
:1039FC00D0FD10B17B4B7C4A5A6703F0E0FD48B117
:103A0C004FF08053D3F84432C3F342334FF080422B
:103A1C00C2F83C3503F0E5FD30B1744AD2F8FC3005
:103A2C0023F08073C2F8FC3003F0F1FD40B14FF08D
:103A3C0080430022C3F80C21C3F81021C3F83825A9
:103A4C0003F0F7FD20B14FF080430322C3F8A0250B
:103A5C0003F005FE60B1664B0522C3F81026012267
:103A6C00C3F888260022C3F818263F22C3F8142670
:103A7C0003F00BFE002846D04FF08052D2F804140D
:103A8C005C4BC3F82015D2F80814C3F82415D2F8EF
:103A9C000C14C3F82815D2F81014C3F82C15D2F84E
:103AAC001414C3F83015D2F81814C3F83415D2F81E
:103ABC001C14C3F84015D2F82014C3F84415D2F8DE
:103ACC002414C3F84815D2F82814C3F84C15D2F8AE
:103ADC002C14C3F85015D2F83014C3F85415D2F87E
:103AEC003414C3F86015D2F83814C3F86415D2F83E
:103AFC003C14C3F86815D2F84014C3F86C15D2F80E
:103B0C004424C3F8702503F0E2FD48B14FF0805314
:103B1C00D3F8583203F04F034FF08042C2F8E43E22
:103B2C0003F0E7FD60B14FF08043D3F8003413F09D
:103B3C00010F05D04FF080436FF00102C3F8002451
:103B4C0003F0E9FD30B12C4AD2F83C3743F48063E2
:103B5C00C2F83C3703F0F3FD38B14FF01023D3F823
:103B6C0008224FF08043C3F858254FF01023D3F8A8
:103B7C000C3213F0010F0ED14FF01023D3F800329A
:103B8C00002B1ADB4FF01023D3F80432002B14DB7C
:103B9C00FFF718FF38BD0120FFF70AFF4FF0102286
:103BAC00D2F80C3223F00103C2F80C32FFF7F8FE06
:103BBC000020FFF7FDFEFFF7E1FE0120FFF7F8FE06
:103BCC004FF010241525C4F80052FFF7E9FEC4F895
:103BDC000452FFF7E5FE0020FFF7EAFEFFF7CEFEEA
:103BEC000030014000C007400DF0ADBA00ED00E020
:103BFC000050004000C000400010004010B50468A8
:103C0C00B4FA84F3C3F11F035FFA83FC002B16DBB9
:103C1C00012202FA03F324EA0303BFF35B8F50E89B
:103C2C00002FA24204D140E8003EBEF1000FF6D1B5
:103C3C00BFF35B8FE3D181F800C0024810BD02488E
:103C4C00FCE700BF0000AD0B0200AD0B0368CB40DE
:103C5C0013F0010F15D100B5026801238B401343FB
:103C6C00BFF35B8F50E800CF944504D140E8003E91
:103C7C00BEF1000FF6D1BFF35B8FEDD102485DF8BA
:103C8C0004FB0248704700BF0000AD0B0400AD0BF5
:103C9C000D4BD3F8FC1041F08072C3F8FC20A3F557
:103CAC005D43186840F001021A605A68074B5B6864
:103CBC009B1AB3F50A5FF9D3044B186003F55D4307
:103CCC00C3F8FC10704700BF00ED00E0001000E0EE
:103CDC0070B582B0054618B1012816D002B070BD7F
:103CEC004FF080430222C3F808230022C3F80421BA
:103CFC00D3F804210122DA6001238DF807309D42AC
:103D0C000FD0002642F2107429E04FF080430122BC
:103D1C00C3F808230021C3F80011D3F800115A602E
:103D2C00EAE70DF10706EDE736B14FF08043D3F823
:103D3C00183403F0030333604FF08043D3F8183486
:103D4C0013F4803F22D1002323B31EB19DF807301A
:103D5C00012B1FD1012003F009FD013C1AD0002DCD
:103D6C00E2D0012D01D00023EEE736B14FF08043B5
:103D7C00D3F80C3403F0010333704FF08043D3F8C5
:103D8C000C3413F4803F03D10023DDE70123DBE780
:103D9C000123D9E7012DA1D1014B00225A719DE7D6
:103DAC002C080020064B1B7943B9054B00229A7155
:103DBC001860012119715A71024870470248704706
:103DCC002C0800200000AD0B0C00AD0B4FF0804216
:103DDC00D2F80C3403F00103D2F80C2412F4803F17
:103DEC0004D100221AB31BB9144870470122F9E719
:103DFC004FF08043D3F8183413F4803F00D10022E5
:103E0C00BAB10F4B9B79B3B94FF080430022C3F882
:103E1C000C21D3F80C210822C3F8042301220849F1
:103E2C008A710221C3F8341C1A6106487047034892
:103E3C007047024870470448704700BF0500AD0B3F
:103E4C002C0800200000AD0B0B00AD0B08B54FF09B
:103E5C008043D3F800318BB14FF080430022C3F87C
:103E6C000021D3F800210122C3F808231C4B5B79F5
:103E7C0023B91B4B5A711B68002098474FF08043A5
:103E8C00D3F804316BB14FF080430022C3F8042106
:103E9C00D3F804210222C3F80823114B1B6801201C
:103EAC0098474FF08043D3F80C31BBB14FF08043AF
:103EBC00D3F8043313F0080F10D04FF080430022D6
:103ECC00C3F8342CC3F80C21D3F80C110821C3F817
:103EDC000813034B9A711B680320984708BD00BF59
:103EEC002C0800200830034B33F8100000F00100C0
:103EFC00704700BF5C0000200830034B33F8100003
:103F0C00C0F34010704700BF5C0000200830044B29
:103F1C0033F8100010F01C0018BF0120704700BFD0
:103F2C005C0000200830034B33F81000C0F3400055
:103F3C00704700BF5C0000200830024B33F81000C3
:103F4C00400B70475C000020002204E04FF0FF3370
:103F5C0083420FD001321F2A0AD802F10803064906
:103F6C0031F8133013F4807FF0D0C3F34323EFE721
:103F7C0000207047012070475C000020002313B123
:103F8C004FF0FF307047074A52F83320824201D07D
:103F9C000133F4E7034A02EBC30252688A42F7D1B9
:103FAC00184670475C0000200830064B33F81000B0
:103FBC0010F4807F04D0C0F3432003EBC0007047A3
:103FCC00002070475C00002070B504460D46FFF7DA
:103FDC00EBFF20B10668426829462046B047044BE7
:103FEC009B6823B1024AD26829462046984770BD87
:103FFC005C00002000F108020E4B33F8123013F471
:10400C00807F16D010B5C3F34324104623F4F85325
:10401C00084A22F810302046FFF796FF00B110BD79
:10402C000448002340F8343021465430FFF70EFE8C
:10403C00F5E770475C00002010B50446FFF75CFF05
:10404C0040B12046FFF778FF00F5A270064B002226
:10405C0043F820202046FFF7CDFF0834034B002205
:10406C0023F8142010BD00BF006000405C0000204D
:10407C0070B582B006460C461546FFF7BBFF24B35D
:10408C0029462046FFF77AFF031E13DB104A42F83D
:10409C00334002EBC3014D605B029BB206F108009A
:1040AC0032F810100B4343F4807322F81030094897
:1040BC0002B070BD0DF107010748FFF79FFD054BDE
:1040CC009842F5D19DF80730E0E70248F0E700BFD1
:1040DC005C0000200000AD0BB0000020F0B583B0F8
:1040EC00002301A808E04FF0A042D2F8201540F8B8
:1040FC00041BC2F820150133002BF4D000259DB30E
:10410C001E4B0022C3F87C21D3F87C3101A803F0AC
:10411C0013FC0028F2D103B0F0BD90FAA0F0B0FA75
:10412C0080F000EB451000F10802154B33F812102B
:10413C00C60800F0070301AF012404FA03F2BB5DCB
:10414C0023EA0203BB5500F01F074FF0A04607F50A
:10415C00E07356F82320C2F30142C1F3820103F04D
:10416C009DFBBC40C6F8204502AB03EB850353F81E
:10417C00040C0028D1D10135C1E700BF006000401C
:10418C005C00002038B5044618E094FAA4F3B3FAA6
:10419C0083F301229A4024EA02040A4A03F5A2732B
:1041AC0052F82350C5F3042552F82300C0F3014004
:1041BC0003F06DFB01462846FFF706FF002CE4D107
:1041CC0038BD00BF006000402DE9F04104461546A3
:1041DC001E4669B30F4603F044FB002840F096805E
:1041EC0004F01F0202F5E0714FF0A04353F82130A8
:1041FC00002F3FD00C2141F0030123EA0103002FD3
:10420C003AD0397889000B4302F5E0724FF0A041A7
:10421C0041F82230414A04F1080132F8113023F000
:10422C0002039BB222F8113043F0010322F8113043
:10423C00BDB12F78D5F804802046FFF773FEE8B1A6
:10424C00B8F1000F64D1354A04F1080132F811308D
:10425C0023F01C039BB222F8113043EA870322F8A7
:10426C001130002E58D0726831682046FFF700FFDD
:10427C00BDE8F0810021BEE70021C4E7274A04F124
:10428C00080132F8113023F02003DB04DB0C22F898
:10429C001130B8F1000FD6D0032F3BD86B681D78C6
:1042AC0037B905F5A2751E4B002243F82520CAE745
:1042BC00384603F0EDFA1A4B05F5A27253F82210AA
:1042CC0021F0030143F8221053F8221021F4473156
:1042DC0021F4407143F8221053F822C0210201F45A
:1042EC00F851000400F4403001434CEA010143F85A
:1042FC0022106B039BB2094A04F1080132F8110039
:10430C00034343F0200322F811309CE70548AFE744
:10431C000448ADE70348ABE70348A9E75C0000207D
:10432C00006000400400AD0B0000AD0BF8B5044676
:10433C00164600294DD00D4603F0A2FA28B12046AE
:10434C00FFF7DAFD002840F097802046FFF7DEFDEE
:10435C0018B16B78012B00F09180A81C04F01F029F
:10436C0002F5E0714FF0A04353F821106F1C4CD0B4
:10437C00022343F00103002849D04FF00C0C43EA10
:10438C000C03002D46D04FF4E06C43EA0C0321EAF9
:10439C000301002F41D06B785B0043F00103002830
:1043AC003DD0A87880000343002D3AD02878000235
:1043BC0003430B4302F5E0724FF0A04141F8223069
:1043CC00314A04F1080132F8113043F0030322F8AA
:1043DC001130002E54D0204603F052FA002851D14F
:1043EC00337803F5A271294A42F82100264904F1D9
:1043FC00080031F8102022F02002D204D20C21F84F
:10440C00102072787AB92248F8BD0023B1E74FF03A
:10441C00000CB4E74FF0000CB7E70023BDE7002019
:10442C00C1E70020C4E7B778184803F5A27550F827
:10443C00251021F4981121F4F85140F8251050F86A
:10444C002560210201F4F851120402F440320A43AF
:10445C00390501F480110A43324340F825205B03EF
:10446C009BB2094A083432F814100B4343F0200372
:10447C0022F814300648C7E70648C5E70548C3E7E5
:10448C000348C1E70348BFE75C0000200060004020
:10449C000000AD0B0400AD0B014B9860D960704768
:1044AC005C00002038B504460D46FFF725FD40B1F1
:1044BC0004F10800044B33F810305B0B2B700348ED
:1044CC0038BD0348FCE700BF5C0000200000AD0BCA
:1044DC000400AD0B104B93F858300BB10F487047DC
:1044EC0010B50D4C4022002104F1100002F033FDF8
:1044FC000620FDF7F7FC0A4B0022C3F87C21D3F809
:10450C007C214FF00042C3F80423012384F8583077
:10451C006365044810BD00BF5C0000200500AD0BB6
:10452C00006000400000AD0B034B93F858000038BE
:10453C0018BF0120704700BF5C00002008B5014681
:10454C000148FFF783FB08BDAC00002008B501460D
:10455C000148FFF753FB08BDAC00002038B50446FA
:10456C000D46FFF7C9FC08B3204603F089F9E8B102
:10457C002046FFF7E1FC830003F580739BB203F147
:10458C00804303F5C04300221A601B681D4A00F5E6
:10459C00A27152F8213043F0010342F8213065B387
:1045AC00012303FA00F0C2F8040326E004F1080327
:1045BC00154A32F81330C3F38203042B0ED0052BAB
:1045CC001CD004F01F034FF0A042D2F8102522FAA1
:1045DC0003F313F0010F13D0032100E0032104F0C7
:1045EC001F044FF0A04204F5E07452F8243023F479
:1045FC00403343EA014342F8243038BD0221EEE750
:10460C000221ECE7006000405C00002010B504467D
:10461C00FFF772FCA0B1204603F032F980B12046BE
:10462C00FFF78AFC012282400C4BC3F8082300F5EB
:10463C00A27053F8202022F0030243F820200BE054
:10464C0004F01F044FF0A04204F5E07452F824303B
:10465C0023F4403342F8243010BD00BF006000400A
:10466C0010B50446FFF73EFC08B9094810BD2046BA
:10467C00FFF7CCFF2046FFF7DFFC04F01F0404F526
:10468C00E0744FF0A043022243F824200148EDE7E8
:10469C000400AD0B0000AD0B38B501204FF4807356
:1046AC0000210C4603E0400004339BB20131072982
:1046BC0014D803F1804202F5C0421268002AF2D0ED
:1046CC000C4AD2F804231042EDD003F1804202F5DB
:1046DC00C0420025156012680443E4E7054BD3F88B
:1046EC007C311BB92046FFF74DFD38BDFFF7F6FCBA
:1046FC00F8E700BF00600040034610F0010F08D13E
:10470C00064813F0020F00D0054813F0040F02D135
:10471C0070470448F5E70448FAE700BF0100AD0B09
:10472C000100AE0B0000AE0B0200AE0B2DE9F843FE
:10473C0005460C4616461F46002380F82E3053685B
:10474C0033B1D36803F06043B3F1005F40F03181C3
:10475C009C4BC4F8083395F82F3003F0FF08002B5E
:10476C0036D117F0140F0CBF0123002385F82F301E
:10477C0005F10C0CB646BEE80F00ACE80F00DEF8F5
:10478C000030CCF80030C7F3001385F830302F62BE
:10479C007378C4F888350023C4F80431D4F80421A4
:1047AC00C4F82431D4F82421C4F86031D4F8602141
:1047BC00C4F84831D4F848313946204603F043F95F
:1047CC003378032B00F2A880DFE803F05594370808
:1047DC00AB68C4F80433DFF8F09181E0336903F07F
:1047EC006043B3F1005F40F0E7804FF48073C4F88E
:1047FC000032F2687368C4F84425C4F848350023C5
:10480C00C4F85031D4F8503101232362A360D4F89A
:10481C005031002BFBD00023C4F85031D4F8503168
:10482C003269B368C4F84425C4F848354FF4802382
:10483C00AB600823DFF8949132E0F2687368C4F837
:10484C004425C4F84835336903F06042B2F1005F87
:10485C0040F0B580B268C4F83435C4F838254FF44C
:10486C008453C4F800320223AB6001232362082373
:10487C00DFF8589114E0F2687368C4F84425C4F862
:10488C00483517F0200F2ED04FF48073C4F8003247
:10489C004FF48023AB60012323620823DFF82C91B3
:1048AC0017F0080F07D13278032A04D00122E25006
:1048BC00736803B962612B6893B317F0040F01D0CE
:1048CC000023AB6017F0400F03D1AB6843F0020339
:1048DC00AB60AB6843F40073AB60AB68C4F80433F3
:1048EC004846BDE8F8834FF40073C4F80032022345
:1048FC00AB60D0E7F2687368C4F83425C4F8383577
:10490C004FF48053C4F800320223AB6001232362BE
:10491C000023DFF8B890C3E70823DFF8B490BFE7B3
:10492C00434600E06BBBD4F8482102B10123D4F814
:10493C0004212AB10023C4F80431D4F80431012332
:10494C00D4F82421002AEDD00022C4F82421D4F874
:10495C002421D4F86021D4F8001212B111F4007F94
:10496C0003D10123236263614346002ADAD011F498
:10497C00807FD7D00023C4F84831D4F8483143465F
:10498C00D1E7D4F8C404C4F8C404002385F82F304C
:10499C0018B1FFF7B1FE8146A2E717F0400F9FD187
:1049AC002946204602F0E1FF002899D1DFF8249037
:1049BC0096E7DFF8249093E7DFF81C9090E7DFF898
:1049CC0018908DE702029C010B00AD0B0000AD0BA3
:1049DC000400AD0B0100AD0B0A00AD0B30B587B078
:1049EC0004460D46D0F8243143B10023C0F82431DD
:1049FC00D0F82431D0F80431002B61D0D4F8043134
:104A0C00002B7DD00023C4F80431D4F804312B6A78
:104A1C0013F0400F03D195F82E30002B67D02B6A82
:104A2C0013F0040F30D10DF1040C05F10C0EBEE89F
:104A3C000F00ACE80F00DEF80030CCF8003000239B
:104A4C00C4F86031D4F86021C4F85C31D4F85C311E
:104A5C0095F8303013B195F82E30ABB10023C4F873
:104A6C000032AB60524BC4F80833220B44F30733CB
:104A7C00002B09DB02F01F025B09012101FA02F293
:104A8C0060334C4941F82320D4F8C434C4F8C434FE
:104A9C0013F0020F73D001238DF8003095F83030ED
:104AAC000BB985F82F302B6A13F0040F02D095F850
:104ABC002E301BB12B6869686846984707B030BD2B
:104ACC008B68C0F8083302238B608B68C0F8043302
:104ADC00D0F8603123B1D0F8003213F4007F02D14A
:104AEC00012323626361012385F82E30E6E7294612
:104AFC00204602F03AFF80F0010085F82E008EE788
:104B0C000023C4F84831D4F848312B7B2BBB0DF172
:104B1C00040C05F10C0EBEE80F00ACE80F00DEF83B
:104B2C000030CCF8003095F83030002BACD1C4F804
:104B3C000032AB601E4BC4F80833220B44F307332E
:104B4C00002BA1DB02F01F025B09012101FA02F22A
:104B5C006033184941F8232096E74FF40073C4F8EA
:104B6C00003240F20223AB6003F1CE73C4F8083379
:104B7C00AB68C4F804330123A36023629EE713F0EF
:104B8C00040F03D002238DF8003087E713F0010FD8
:104B9C0003D003238DF8003080E795F82E301BB13D
:104BAC0004238DF8003079E700238DF8003075E789
:104BBC0002029C0100E100E0F8B504460D460679BE
:104BCC0007681E49342000FB061191F82D1009B11D
:104BDC001B48F8BDDFF864C006FB00F00CEB0001CD
:104BEC004CF800204B6000238B6081F8303081F84A
:104BFC002F306B7B81F83230AB7B81F83330294618
:104C0C00384602F0F3FEB0B1AB68C7F82435342354
:104C1C0006FB03F3094AD35823B1206840F307304D
:104C2C00FDF760F9054B342202FB0636012386F8AA
:104C3C002D300448CDE70448CBE700BF34080020F2
:104C4C000500AD0B0000AD0B0400AD0B0279036841
:104C5C000621C3F80015044B342101FB0233022258
:104C6C0083F82D20704700BF3408002001790268BA
:104C7C000B4B342000FB0133002199600948C2F82A
:104C8C000803D2F8000220F4BC50C2F80002C2F8AB
:104C9C000015012283F82D2083F82F10704700BFD8
:104CAC003408002002029C0138B5044605793423EF
:104CBC0005FB03F31A4AD35823B1006840F30730BD
:104CCC00FDF71EF92046FFF7D1FF154B342202FBEE
:104CDC00053393F83330D3B9114B02FB053393F8FA
:104CEC003230A3B92368D3F8083503F01F034FF013
:104CFC00A04203F5E073022142F823102368D3F895
:104D0C000C3503F01F0303F5E07342F82310044B3A
:104D1C00342202FB0535002385F82D3038BD00BF49
:104D2C003408002010B5134690F804C00A460168F8
:104D3C00034C342000FB0C40FFF7F8FC10BD00BF07
:104D4C003408002008B502490248FFF747FE08BDA9
:104D5C0034080020003000402DE9F04100F01F0025
:104D6C004FF0010808FA00F64FF0A043C3F80865AD
:104D7C0001F01F0708FA07F8C3F8088500F5E07082
:104D8C0040F20D6243F8202007F5E07143F8212032
:104D9C00042002F0EBFC0024082C16D84FF0A043A2
:104DAC00D3F81035FB4013F0010F0ED14FF0A04596
:104DBC00C5F80C65042002F0D9FCC5F80865042080
:104DCC0002F0D4FC0134E4B2E6E74FF0A044C4F89E
:104DDC000C85042002F0CAFCC4F80885042002F0FB
:104DEC00C5FCD4F8101521FA07F717F0010F02D003
:104DFC000248BDE8F0810248FBE700BF0000AD0BA4
:104E0C000100AD0B10B5144C032323616361134AED
:104E1C00A261134BE3614FF4806323620023A3620E
:104E2C006362E36222660F4A62661022A2662367FF
:104E3C00E36663670C49E01D02F027F8BFF35F8F50
:104E4C000A49204602F021F8BFF35F8F2023A3719B
:104E5C00BFF35F8F10BD00BF6808002040850000C5
:104E6C0020090020100900204C850000508500000E
:104E7C00F8B50F461646184B451C05EB450503EBDC
:104E8C00C50500EB400003EBC000C46A012C11D037
:104E9C00022C1CD014B100242046F8BD284602F088
:104EAC00E7FD8642F8D832463946284602F0ECFD3A
:104EBC003446F1E7284602F0DBFD3446864228BF33
:104ECC00044622463946284602F0DEFDE4E7284631
:104EDC0002F000FE0446DFE768080020034B00E008
:104EEC001833034A9342FBD3704700BF9C810000E8
:104EFC00FC81000070B50646114B53F8204009E0C8
:104F0C00404217E0EB681870EA68537843F00103ED
:104F1C0053700834731C0A4A52F82330A3420DD93B
:104F2C006568236828469847002DF2D00028EBD0FE
:104F3C000028E5DBFF28E5DDFF20E3E770BD00BFBF
:104F4C005885000010B586B0114CB02303FB00440B
:104F5C0000EB40020F4B03EBC2030F4A05920122F8
:104F6C0004920F22039200220292019200930B4BA7
:104F7C004FF4A0720A494FF4B07C0CFB0011204690
:104F8C0000F016F9637B23F00403637306B010BDC5
:104F9C00D0040020200D0020708500001953000063
:104FAC00201A002008B50A4B01221A700220FFF7C4
:104FBC00A1FF01F02DFB0320FFF79CFF00F05CF933
:104FCC00FBF70AFE034A137B23F00103137308BD9E
:104FDC006A0D00208005002008B50146014A0248F0
:104FEC00FDF788F8B14F00008005002008B5034894
:104FFC00034A121A002102F0CEFD08BDF001002078
:10500C006C0D002010B50446FFF79CFF0B49B02334
:10501C0003FB04110A4A04EB440302EBC303D960FB
:10502C001C7504EB8411074B03EB411303F502636E
:10503C0004EB440402EBC404636010BDD0040020F4
:10504C00200D0020801B002070B586B000F0C4FF3E
:10505C00104D114BDD61114B05930123049300247A
:10506C0003940294019400940D4B4FF480620D490B
:10507C00284600F09DF806466B7B23F004036B7307
:10508C00284602F081FE2046FFF7BCFF304606B0F2
:10509C0070BD00BF80050020200D00207885000029
:1050AC00B14F00000016002000B5ADB01D4B83F3CE
:1050BC0008881D4C636943F400736361E02384F832
:1050CC0022300025E57725766576A57684F8205084
:1050DC00636A43F4E023636284F82350FDF762F9BA
:1050EC00FCF7E2FE4FF0FF33A362E362FDF776FAC2
:1050FC00FDF706FA01248DF80D408DF80C4026952D
:10510C0027952995094BC3F808D0FFF7E7FE2846E9
:10511C00FFF7F0FE2046FFF7EDFEFFF795FFFFF7D8
:10512C005BFF00BFA023002000ED00E0200D00205D
:10513C004FF02003EFF3118183F31288BFF36F8FCD
:10514C000A4B9B6A834204D11A6F084B9A6207E0A0
:10515C00134613B11A6F8242FAD10BB1026F1A6760
:10516C0081F31188BFF36F8F704700BF200D0020B3
:10517C0010B5044640B11F2204F1740001F08FFEFB
:10518C00002084F8930010BD014B9C68F3E700BF2E
:10519C00200D002008B553EA020102D102F01BFDDC
:1051AC0008BD0249183001F083F8F9E7CD7D000005
:1051BC002DE9F04F85B004460F4615461E46DDF826
:1051CC0038A0DDF83C90DDF84080DDF84CB000F103
:1051DC0058038365C365129B0422119902F0FFFCEE
:1051EC002A463946204602F0DEFC0546CDF80880FA
:1051FC00CDF80490CDF800A033460246394620463F
:10520C00FCF72EFF002363652666C4F864A0C4F87F
:10521C006890C4F86C804FF02003EFF3118283F395
:10522C001288BFF36F8F134B996A21679C6282F3CC
:10523C001188BFF36F8FBBF1000F13D01F2259469B
:10524C0004F1740001F02BFE002384F89330094B19
:10525C009B685BB1D3F8A430C4F8A430284605B0E1
:10526C00BDE8F08F002384F87430F0E7C4F8A43064
:10527C00F4E700BF200D002030B587B0214C14E0BE
:10528C00E36A0593236A0493E3690393A369029386
:10529C006369019323690093E368A26861682068DD
:1052AC00FFF786FF23685C653034174B9C42E7D3CD
:1052BC0000F0FAFB134C00E03034134B9C421CD230
:1052CC00606AB0F1FF3FF7D0256820EAE070C117A3
:1052DC00C90341EA5041C00340F2E733C0184FF410
:1052EC007A724FF0000341F10001FBF76FFA0246AE
:1052FC000B462846FFF74EFFDEE700F0F7FD07B040
:10530C0030BD00BFD00000209001002008B501E0A6
:10531C00FCF7D0FD4FF02002EFF3118382F31288DB
:10532C00BFF36F8F02F092FE054B9861054B1B7813
:10533C00002BEDD0FCF796FC0028EBD1E8E700BF82
:10534C00200D00206A0D00202DE9F04182B00446AA
:10535C000D4600F108074FF02001EFF3118681F3A1
:10536C001288BFF36F8F006AE16888420BD353EA4F
:10537C00020132D16FF0220086F31188BFF36F8FD8
:10538C0002B0BDE8F081204602F0C5FD804680B138
:10539C00A2682946406901F0AFFD0024C8F8AC4072
:1053AC00404602F0F1FC3146384600F061FB2046E5
:1053BC00E6E7A2682946E06901F09EFDA268E36970
:1053CC001344E3616269934204D0236A013323627C
:1053DC000020D1E72369E361F7E7054989684D614E
:1053EC000092019322463146384600F0C9FCC7E7CB
:1053FC00200D0020F0B583B00446084604F10806E1
:10540C004FF02001EFF3118581F31288BFF36F8FFA
:10541C00216A51B953EA02013DD16FF0220085F3A4
:10542C001188BFF36F8F03B0F0BDA268A16901F0C2
:10543C0063FDA268A3691344A3616269934209D016
:10544C00236A013B2362204602F065FD074620B922
:10545C000020E4E72369A361F2E7A2684169E069EF
:10546C0001F04AFDA268E3691344E3616269934267
:10547C000ED0236A013323620024C7F8AC403846AF
:10548C0002F082FC2946304600F0F2FA2046CAE7C8
:10549C002369E361EDE7054989684861009201934E
:1054AC0022462946304600F06BFCBCE7200D00205C
:1054BC002DE9F04383B004461D464FF02003EFF373
:1054CC00118783F31288BFF36F8FC16899B90029D4
:1054DC004FD13A4B9B6893F90E3023610131E16057
:1054EC00364B9B68A36087F31188BFF36F8F002046
:1054FC0003B0BDE8F08316468268304B9B689A4235
:10550C00E5D055EA06010CBF4FF001084FF000083A
:10551C0031D092F90E90494693F90E0002F092FBAD
:10552C0081452FDC4FF00009009601952246394643
:10553C00234800F025FC0028DAD04FF02003EFF3CD
:10554C00118583F31288BFF36F8F23689C421FD0A1
:10555C00F3B1216993F90E0002F074FB0146204669
:10556C0002F07BFBB0B9B9F1000F15D04FF0010878
:10557C0012E02369B1E787F31188BFF36F8F6FF0E7
:10558C000F00B5E70146204602F067FB8146CBE7EA
:10559C002169E4E74FF00108B8F1000F06D185F35B
:1055AC001188BFF36F8F6FF00A00A1E729460448FA
:1055BC0000F05EFA6FF00A009AE700BF200D0020A1
:1055CC004C0D00208268002A35D038B504461D4B9E
:1055DC009B689A4232D1DA7B013ADA73C368012BA9
:1055EC0005D9013BC36000F081FC002038BD4FF0B1
:1055FC002003EFF3118583F31288BFF36F8F0169DA
:10560C0002F02BFB204602F086FCA06060B190F902
:10561C000E3023610023C0F8AC3002F0B5FB2946F4
:10562C00094800F025FADEE70023E36085F31188D2
:10563C00BFF36F8FD7E76FF0150070474FF0FF3057
:10564C00D4E700BF200D00204C0D002038B50446D7
:10565C004FF02003EFF3118583F31288BFF36F8FA4
:10566C0002F059FC48B10022C0F8AC2002F08CFBCF
:10567C002946074800F0FCF938BDA368E26893425C
:10568C0003D001221344A360F2E70022FAE700BF23
:10569C004C0D002010B582B04FF02004EFF31181B7
:1056AC0084F31288BFF36F8F846844B1013C84602B
:1056BC0081F31188BFF36F8F002002B010BD53EA45
:1056CC00020406D0009201930246054800F058FBF4
:1056DC00F3E781F31188BFF36F8F6FF00F00ECE7E6
:1056EC004C0D0020F8B50D46C36813F0020F5CD1C9
:1056FC00044613F0040F5DD10B68002B38D0E3681F
:10570C0013F0010F37D0A3682B6002272E68002EF0
:10571C003FD0294B9B68B3422FD000231A46D6F8B2
:10572C00C830C3F38001C3F3C00013F0010F33D0B2
:10573C0001B1A2B300B1A9B300232360D6F8B430F1
:10574C0013B31C60C6F8B4402EB10022114606F10A
:10575C00B80002F00FFC0120002806DBE36843F0E0
:10576C000403E3602B68A3603846002821DC1EE0AC
:10577C0083680B60C3E70127C8E702F026FA08B973
:10578C000123CBE70023C9E7C6F8B440C6F8B04004
:10579C00DAE76FF01500DFE76FF01200DCE76FF06F
:1057AC000F00D9E76FF00F00D6E76FF00F00002362
:1057BC002B60F8BD0020FAE7200D002070B50546DF
:1057CC00C36823F00203C3601A4B1B68FBB11C4671
:1057DC0003B11C6800261FE01A4666B119683160D7
:1057EC00144949688B420FD00021116003F1080065
:1057FC00FFF72CFF15E018680E49086049688B42CA
:10580C00F2D10C494860EFE70A494E60ECE71C46C0
:10581C00E0E722462346144653B15A68AA42DBD02D
:10582C001E46002CF5D02246002CF3D02268F1E75E
:10583C0070BD00BF4C0D0020F0B585B0054616E0DC
:10584C00D5F8C83023F00402C5F8C82013F0040FB3
:10585C0059D1002302934FF0FF324FF0FF33CDE9C3
:10586C00002305F1B80231462E4800F0ABFC4FF096
:10587C002003EFF3118683F31288BFF36F8FD5F8F3
:10588C00B040002CDCD02368C5F8B030D5F8B4207B
:10589C00944235D0D5F8C83043F00203C5F8C8306F
:1058AC00E36843F00103E36023F00403E3606368FF
:1058BC00002CCED086F31188BFF36F8F204698470B
:1058CC004FF02003EFF3118683F31288BFF36F8F31
:1058DC00E36823F00103E36013F0020F1ED1D5F847
:1058EC00C83023F00203C5F8C830C3F3002386F395
:1058FC001188BFF36F8F002BB9D100F079FBB6E79D
:10590C00C5F8B430C6E705F1C007002201213846BE
:10591C0002F030FB0028F8D10023C9E72046FFF73E
:10592C004DFFDCE74C0D002008B50146014802F0A4
:10593C00B5F908BD38060020F0B589B004460E9DB7
:10594C000020C4F8B000C4F8B40004F1B800C4F8E6
:10595C00B800C4F8BC0004F1C000C4F8C000C4F81E
:10596C00C400FDB12879F8B90120C4F8C8004FF083
:10597C00FF364FF0FF37CDE9066700200490039304
:10598C000290019000940A4B204602F033F925B1A5
:10599C00296811B12046FFF7EBFB204602F01BF9FA
:1059AC0009B0F0BD0120E0E740F20110DDE700BFD7
:1059BC0045580000B3F1FF3F08BFB2F1FF3F00D1E3
:1059CC00704708B50249183000F072FC08BD00BFE2
:1059DC00CD7D000010B5074B1C6804B910BDFDF758
:1059EC005DFE0444044B1C610021024B186802F05C
:1059FC0044FBF3E75C0D0020200D002070B504463D
:105A0C000D4600234FF02002EFF3118682F312882B
:105A1C00BFF36F8F0EE00228B8BF02201860114B45
:105A2C001D60114B9868FFF7D5FF86F31188BFF303
:105A3C006F8F0123A3B90C4B00221A61610CE30395
:105A4C0040F2E73018184FF47A724FF0000341F12E
:105A5C000001FAF7BBFE054B1860002CDBDCDEE71F
:105A6C0070BD00BF580D0020200D00205C0D0020E3
:105A7C0008B5084621B9EFF3058313B9012100E0FD
:105A8C00002111F0010F07D0064BDA699B689A428E
:105A9C0002D0FCF78DFA03E080F31188BFF36F8F0F
:105AAC0008BD00BF200D002000234FF02002EFF3B3
:105ABC00118182F31288BFF36F8F09E0064B9A684D
:105ACC00D37B013BD37381F31188BFF36F8F012319
