:10000000E0160020ED160000DF5F0000A5160000DE
:10001000A5160000A5160000A516000000000000AF
:10002000000000000000000000000000311300008C
:10003000A516000000000000D9120000A51600005F
:10004000111400001114000011140000111400001C
:10005000111400001114000011140000111400000C
:1000600011140000111400001114000011140000FC
:1000700011140000111400001114000011140000EC
:1000800011140000111400001114000011140000DC
:1000900011140000111400001114000011140000CC
:1000A00011140000111400001114000011140000BC
:1000B00011140000111400001114000011140000AC
:1000C000111400001114000011140000111400009C
:0C00D000111400001114000011140000B5
:1000DC0053B94AB9002908BF00281CBF4FF0FF31A3
:1000EC004FF0FF3000F00CB8ADF1080C6DE904CE08
:1000FC0000F008F8DDF804E0DDE9022304B07047F5
:10010C00704700BF2DE9F04F07468C460846099E04
:10011C0015463C461946002B40F0C6808242B2FA86
:10012C0082F746D94FB1C7F1200E24FA0EFE00FA21
:10013C0007F3BD404EEA030CBC404FEA15481FFACA
:10014C0085FEBCFBF8F9220C08FB19C309FB0EFA5F
:10015C0042EA03439A4528D9EB1809F1FF3004D23F
:10016C009A4502D9A9F102002B44A3EB0A03A4B2CD
:10017C00B3FBF8F208FB123302FB0EFE44EA034415
:10018C00A64514D92C1902F1FF3303D2A64501D987
:10019C00931E2C44A4EB0E0443EA00401EB1FC4019
:1001AC00002334607360BDE8F08F4846DDE71346EA
:1001BC00F0E702B9FFDE87BB831A01214FEA154E27
:1001CC00AAB2B3FBFEFC200C0EFB1C330CFB02F89A
:1001DC0040EA0343984563D9EB180CF1FF3004D285
:1001EC00984502D9ACF102002B44A3EB0803A4B24E
:1001FC00B3FBFEFC0EFB1C330CFB02F244EA034483
:10020C00A2424FD92C190CF1FF3304D2A24202D9CD
:10021C00ACF102032C44A41ABEE7C7F1200C20FA5F
:10022C000CF800FA07F324FA0CFCBD404CEA03026C
:10023C004FEA154EABB2B8FBFEFC110C0EFB1C804A
:10024C000CFB03F941EA0040814504FA07F423D979
:10025C0028180CF1FF3104D2814502D9ACF102010E
:10026C002844A0EB090092B2B0FBFEFC0EFB1C0074
:10027C000CFB03F842EA004398450FD9EB180CF13C
:10028C00FF3204D2984502D9ACF102022B44A3EB05
:10029C00080342EA014191E76146E2E76246F6E76C
:1002AC006046A2E76346B6E7834205D90EB1C6E9BC
:1002BC0000700021084676E7B3FA83F181B98342D6
:1002CC0001D3BA420AD8BC1A60EB030301209C4646
:1002DC00002E68D0C6E9004C002164E70846F7E719
:1002EC00C1F1200C8B4022FA0CF41C4302FA01F5EC
:1002FC0000FA01F327FA0CF220FA0CFB4FEA14492E
:10030C001343BBFBF9F81FFA84FE09FB18BB1A0C4C
:10031C0008FB0EFA42EA0B42924507FA01F73ED966
:10032C00A21808F1FF3004D2924502D9A8F10200BC
:10033C002244A2EB0A029BB2B2FBF9F809FB182289
:10034C0008FB0EFE43EA024296452AD9A21808F190
:10035C00FF3304D2964502D9A8F10203224443EAA2
:10036C000040A0FB0593A2EB0E029A42CE469846A3
:10037C0002D306D14F4504D2B9EB050E63EB04084A
:10038C00013886B1B7EB0E0362EB080707FA0CFCD9
:10039C00CB404CEA0303CF40C6E900379CE740460C
:1003AC00C7E74346DBE73146FDE6000010B584B0F5
:1003BC00064B6C460FCB84E80F00054805F0CFFBCD
:1003CC0094E80F0005F056FB04B010BD507500000A
:1003DC008875000000B585B0EC46044B0FCB8CE85B
:1003EC000F0005F047FB05B05DF804FB60750000DD
:1003FC0000B585B0EC46044B0FCB8CE80F0005F034
:10040C0039FB05B05DF804FB7075000008B50B688E
:10041C0001330B60014B1B68984708BD000000209E
:10042C00014B1860704700BF0000002000B583B07E
:10043C0002460B460021019101A9034800F03CFA49
:10044C0003B05DF804FB00BF190400002DE9F04374
:10045C0083B0044608461546238B13F0080F05D1CC
:10046C0003F0070600230093019369E0012909D0EA
:10047C0043F02003238385F31188BFF36F8F03B000
:10048C00BDE8F08343F010032383F4E7204605F026
:10049C009BFB57E0D4F814904A466946204605F079
:1004AC00ACFB00275AE023691F680621204605F0A3
:1004BC0064FB4FF0000951E023695F68042120467A
:1004CC0005F05BFB4FF0000948E023699F680521AC
:1004DC00204605F052FB4FF000093FE0002246E0B9
:1004EC00002244E043F00803238385F31188BFF313
:1004FC006F8F002944D1009B2BB14B464246694675
:10050C00204605F0F1FB17B125492046B8474FF0BE
:10051C002003EFF3118583F31288BFF36F8F238BC6
:10052C0023F008032383238B13F0100F2ED023F01A
:10053C00100323830120268B06F0070600289AD08F
:10054C000228A3D0002896D00128A3D00328AAD033
:10055C000428B1D00528B8D00027B946238B03F066
:10056C000708B045BAD0A268002AB9D001221146BA
:10057C00002AB7D1009A002AB4D1002FB2D1D2E709
:10058C004A464146204605F000FBB4E713F0200F25
:10059C0004D023F0200323830220CCE70020CAE7F9
:1005AC00235D000070B582B00446002303604360F5
:1005BC0083604B78252B02D04E1C01251FE0881C34
:1005CC00E37045E1237843F004032370B5B10136A1
:1005DC0014E0237843F008032370F7E7237843F003
:1005EC0010032370F2E7237843F020032370EDE728
:1005FC00237843F040032370E8E7002545B33378B4
:10060C00203B102BF9D801A252F823F0E905000089
:10061C000706000007060000F305000007060000AF
:10062C00070600000706000007060000070600008A
:10063C000706000007060000DF05000007060000A3
:10064C00D10500000706000007060000FD050000AC
:10065C00237803F04403442B5FD00196237843F0B6
:10066C008003237033782A2B5CD001A805F00AFC98
:10067C00019B9E420FD0237843F08003237060606F
:10068C00DBB2C3F34003002854DB0022134322786F
:10069C0063F341022270019B01931B782E2B14BF34
:1006AC0000230123627863F341026270002B43D074
:1006BC00019B5A1C01925B782A2B3FD001A805F0B4
:1006CC00E1FBA0602378C3F3400300283EDB00224B
:1006DC001343227863F341022270019803784C3B58
:1006EC002E2B00F29D80DFE803F0909B9B9B9B9B45
:1006FC009B9B9B9B9B9B9B9B9B9B9B9B9B9B9B9B3E
:10070C009B9B9B9B9B9B339B579B459B9B9B9B9B2F
:10071C009B9B899B9B9B9B9B820023786FF38613EF
:10072C0023709AE7637843F0010363703346013317
:10073C000193B1E70122A9E70198CFE7637843F071
:10074C0004036370104601300190C7E70122BFE734
:10075C00421C4378682B06D06378022161F3C603F0
:10076C00637010461EE06378012262F3C603637067
:10077C00023017E0421C43786C2B06D063780321BF
:10078C0061F3C603637010460CE06378042262F3D5
:10079C00C6036370023005E06378052262F3C6037A
:1007AC006370013010F8013BE370A3F14102372A6A
:1007BC007DD8DFE802F05E7C7C7C5E5E5E7C7C7CBF
:1007CC007C7C7C7C7C7C7C7C7C7C7C7C7C4F7C7C8A
:1007DC007C7C7C7C7C7C5E7C4F3A5E5E5E7C3A7C76
:1007EC007C7C7C654F717C7C717C4F7C7C4F63780E
:1007FC00062262F3C60363700130D3E763780722E5
:10080C0062F3C60363700130CCE76378082262F3AD
:10081C00C60363700130237843F002032370C1E7F1
:10082C0063786FF3C6036370BCE7A278012161F3B0
:10083C000202A270627802F07802402A10D0632B78
:10084C0013D02378C3F34002154365F3410323709F
:10085C0002B070BDA278022161F30202A270E9E736
:10086C00217841F001012170E9E7151E18BF01251F
:10087C00E7E7A378042262F30203A3700125E0E703
:10088C00A378032262F30203A370637803F0780366
:10089C00402BD6D10125D4E7A378032262F30203BF
:1008AC00A370637813F0780FCBD00125C9E72378B8
:1008BC0043F001032370C4E72DE9F04F91B00646D5
:1008CC000D4691460393002499F80000002800F08F
:1008DC00D582252808D009F101092946B0470028FE
:1008EC00C0F2CD820134EFE7002304930593069305
:1008FC00079308930993494606A8FFF753FE029005
:10090C009DF8193013F0010F00F09780039B1A1D0E
:10091C0003921F68002FC0F288809DF8193013F0E5
:10092C00040F00F09C80039B1A1D0392D3F800A0C7
:10093C00BAF1000FC0F28A800023079308939DF848
:10094C001A3003F007039DF81910C1F3C301012BF2
:10095C0000F08E80022B00F0D380042B00F0248159
:10096C00032B00F03B819DF8188018F0030B40F02E
:10097C003B819DF81B30253B532B00F2E681DFE8D1
:10098C0013F04001E401E401E401E401E401E401B9
:10099C00E401E401E401E401E401E401E401E40123
:1009AC00E401E401E401E401E401E401E401E40113
:1009BC00E401E401E401E401E401E401E401E40103
:1009CC00E401E401E401E401E401E401E401E401F3
:1009DC00E401E401E401E401E401E401E401E401E3
:1009EC00E401E401E401E4018101E401E401E40136
:1009FC00E401E401E401E401E401E401E4015E0149
:100A0C006701E401E401E401E4016701E401E401AC
:100A1C00E401E401BE018101A201E401E4014D0104
:100A2C00E4018101E401E40181019DF8183043F0F7
:100A3C0004038DF818307F426FE79DF91830002BB6
:100A4C0002DB4FF0FF3768E7079F66E79DF8193028
:100A5C006FF341038DF819304FF0FF3A6CE713F048
:100A6C00020F02D0DDF820A066E74FF0FF3A63E7F3
:100A7C00CB1E042B04D8DFE803F00B1D2935350001
:100A8C00039B1A1D03921B68DA170493059206E068
:100A9C00039B1A1D03921B68DA1704930592012914
:100AAC0028D002297FF45FAFBDF91030DA17049318
:100ABC00059258E7039B073323F0070303F1080261
:100ACC000392D3E90023CDE90423E8E7039B073322
:100ADC0023F0070303F108020392D3E90023CDE9C5
:100AEC000423DCE7039B1A1D03921B68DA1704939B
:100AFC000592D4E79DF8103004930023059332E758
:100B0C00CB1E042B04D8DFE803F00B1F354141004A
:100B1C00039B1A1D03921B680493002305931EE08C
:100B2C009DF81B30632B07D0039B1A1D03921B6887
:100B3C0004930023059312E0039B1A1D03921B6878
:100B4C000493002305930AE0039B073323F0070368
:100B5C0003F108020392D3E90023CDE90423012910
:100B6C001CD002297FF4FFAEBDF810300493002393
:100B7C000593F8E6039B073323F0070303F1080200
:100B8C000392D3E90023CDE90423E8E7039B1A1D64
:100B9C0003921B68049300230593E0E79DF8103043
:100BAC00049300230593DEE608290BD0039B07333F
:100BBC0023F0070303F108020392D3E90023CDE9E4
:100BCC000423D0E6039B073323F0070303F1080249
:100BDC000392D3E90023CDE90423C4E6039B1A1D39
:100BEC0003921B680493BEE6029F3B464A46294685
:100BFC00304605F0C3F90028C0F241810444B946DF
:100C0C0062E629462520B0470028C0F2388101341D
:100C1C00D8460DF13E0A4FF000099BE0DDF810902C
:100C2C00BAF1000F07DB5146484605F098FA09EB7C
:100C3C00000AD8468EE0484605F088FAF7E7049B90
:100C4C008DF82830D8460DF1290A0DF1280981E0DC
:100C5C0018F0080F05D118F0100804D04FF0200838
:100C6C0001E04FF02B08049A059B002B02DB049249
:100C7C00059308E0524263EB4303049205934FF053
:100C8C002D0800E0D8460DF13E0300930AAB06AAEE
:100C9C00DDE9040105F008F98146BAF1000FC0F254
:100CAC0088800DF13E03A3EB09039DF818206FF328
:100CBC0086128DF818209A457ED9AAEB0303079368
:100CCC000DF13E0A46E0049828B9D846DFF8B4A1E5
:100CDC00AAF105093EE00DF13E0300930AAB06AA0A
:100CEC00002105F0E1F881469DF81A3043F010031D
:100CFC008DF81A3078238DF81B30D846CDE7049A3E
:100D0C009DF81930C3F3C303072B06D8DFE803F0B3
:100D1C00040B0D0F1115191B1460D8460DF13E0A6A
:100D2C004FF0000916E01470F7E71480F5E7146033
:100D3C00F3E7E31714605360EFE7E31714605360B5
:100D4C00EBE71460E9E71460E7E7D8460DF13E0ADB
:100D5C004FF00009B9F1000F00F08D80AAEB0903E8
:100D6C00B8F1000F00D001339DF81A2012F0100FCB
:100D7C0025D0023307990B4412F0400F01D0089A8A
:100D8C001344002F31DDFF1A9DF8183013F0040FB7
:100D9C002BD113F0400F17D0B8F1000F17D0294604
:100DAC004046B04700286ADB0134D8464FF0300B80
:100DBC000FE00DF13E0ACDE70DF13E0ACAE712F045
:100DCC00080FD7D00133D5E74FF0200B01E04FF0DF
:100DDC00300B3B465F1E002B07DD29465846B047BB
:100DEC0000284CDB01343B46F4E7B8F1000F05D08A
:100DFC0029464046B047002841DB01349DF81A30A3
:100E0C00C3F30012C3F3C003134305D029463020AB
:100E1C00B047002833DB01349DF81A3013F0100F63
:100E2C0006D029469DF81B00B047002827DB01346B
:100E3C00079B03F1FF38002B07DD29463020B04714
:100E4C0000281CDB01344346F3E753464A46294647
:100E5C00304605F093F8002811DB0444002F07DD21
:100E6C0029462020B047002809DB0134013FF5E773
:100E7C00DDF8089028E5DDF8089025E5204611B04E
:100E8C00BDE8F08FCD75000070B52A4B1D7D05F0C7
:100E9C001F0301229A406909274B03EB8103D043BE
:100EAC00BFF35B8F53E8001F01EA000443E80046E0
:100EBC00002EF7D1BFF35B8F0A4200D170BD1F48E3
:100ECC0005EB45029300C1181D4A72B14978C05C0C
:100EDC0005F0ABF94FF02003EFF3118683F3128882
:100EEC00BFF36F8F174B1C6810E0002383F311883E
:100EFC00BFF36F8FEEE70F4B1B7D03EB43039900A2
:100F0C000E4B585C90470CB1246824B11CB1A268FC
:100F1C00002AF0D1F7E786F31188BFF36F8F0748EB
:100F2C0005EB4505AA008118002383504B608B60AC
:100F3C00C4E700BF300C0020280600201806002053
:100F4C00376200001006002070B50446574B1D7D1B
:100F5C006A09BFF35B8F564B53F82230BFF35B8F9C
:100F6C0005F01F02134113F0010F15D005EB4503DB
:100F7C00504A12F82330F3B1B4F1FF3F31D103F0F2
:100F8C009DFF4FF02003EFF3118683F31288BFF31C
:100F9C006F8F494B1C6845E00146284600F0A4F8C9
:100FAC000028E3D005EB4503424A02EB830307C854
:100FBC0083E80700DAE705F01F02012393406D096F
:100FCC003B4A02EB8505DB43BFF35B8F55E8002FF3
:100FDC001A4045E800210029F8D1BFF35B8F0020AF
:100FEC0062E005EB4503334A02EB83039868410C3E
:100FFC00C003324BC018324A4FF0000341F10001DC
:10100C00FFF766F80121201A06F00FF9B7E7274B16
:10101C001B7D03EB4303274911F8230090470CB1C8
:10102C00246824B11CB16268002AF0D1F7E786F37A
:10103C001188BFF36F8F05F01F03012199406B09D5
:10104C00204A02EB8303BFF35B8F53E8002F0A4364
:10105C0043E800200028F8D1BFF35B8F1A4B4BB14B
:10106C00144B05EB450203EB8201497813F822007F
:10107C0005F0CFF8FFF708FF05F01F03012404FA71
:10108C0003F36D090A4A02EB8505DB43BFF35B8F63
:10109C0055E8002F1A4045E800210029F8D1BFF38C
:1010AC005B8F04F02DF9204670BD00BF300C002082
:1010BC002406002018060020100600203F420F00D6
:1010CC0040420F00280600201F620000BFF35B8F18
:1010DC00044B53F82000BFF35B8F003818BF01207E
:1010EC00704700BF2C0600202DE9F04182B00E465F
:1010FC0001A900F043F8441E24B207E0B6F1FF3F0B
:10110C0032D04044B0422FD9013C24B2002C2ADB0F
:10111C00019B04EB440203EB820513F82200FFF75A
:10112C00D5FF0028F0D16868410CC003104FC019DE
:10113C00104A4FF0000341F10001FEF7C9FF804651
:10114C00AB68590CDB03D8190A4A4FF0000341F184
:10115C000001FEF7BDFF084B1B68B3F1FF3FCDD07C
:10116C008342CBD8D0E70025284602B0BDE8F081F9
:10117C003F420F0040420F000400002008B9024B10
:10118C000B600020704700BFD07500000149102291
:10119C000A60704710ED00E072B6404080F3118891
:1011AC00BFF36F8FBFF34F8F30BF62B6BFF36F8F3C
:1011BC00704700BF72B6494081F3118820BF80F39D
:1011CC00118862B6704700BF40B2002807DB00F000
:1011DC001F02400901239340014A42F82030704716
:1011EC0000E100E040B200280CDB00F01F024009D7
:1011FC00012393402030044A42F82030BFF34F8F34
:10120C00BFF36F8F704700BF00E100E04209054B50
:10121C0053F8222000F01F00012303FA00F01040C5
:10122C00704700BF00E100E0013140B2002808DB4C
:10123C004901C9B200F1604000F5614080F800132B
:10124C00704700F00F004901C9B2014B19547047A7
:10125C0014ED00E030BFFFF7FDBF00BF08B50B4B2E
:10126C000B4A22F07F029A60BFF34F8FBFF36F8F50
:10127C00D3F8882022F47002C3F8882003F074F9A4
:10128C0004F0BEF900F012FA03F0CCF900ED00E026
:10129C00000000000A4A9368C3F8A80009490968CD
:1012AC00C3F8AC1008494B6843F080534B600023E3
:1012BC0083F31188BFF36F8F9368D3F8AC0070473A
:1012CC00300C00205477000000ED00E013498A68D0
:1012DC004FF030001044EFF3098C80E8F01F202011
:1012EC0080F31288BFF36F8F0D4F4FF00066CA6901
:1012FC008A603E60D2F8A8000023C2F8A83080F3C0
:10130C00118804B5104600F07BFABDE8044002F1E8
:10131C00300090E8F01F8CF309887047300C0020E7
:10132C0004ED00E01EF0040F0CBFEFF30880EFF3A8
:10133C000980816911F8021C0229FFD001B504F063
:10134C003CFE01BD10B4A2F120040E4942F8081C69
:10135C0021F0010142F8081C42F8203C019B42F8A4
:10136C001C3C029B42F8183C039B42F8143C4FF087
:10137C00807342F8043C04650023C0F8A83010BC0C
:10138C00704700BF7D5E0000124B9A6802B310F1EB
:10139C00160F11D0D2F89830A3F1200C844505D843
:1013AC00834205D98B4205D800210BE0002109E0CE
:1013BC00002107E0012105E0D2F898308B4294BF60
:1013CC000021012109B900207047D2F8980070471C
:1013DC0000207047300C002008B50D461446084B11
:1013EC00986000F00DFA204685F30988002163B659
:1013FC0081F31188BFF36F8F0022002304F038FDB6
:10140C00300C002001B572B60B4A906900281EBF43
:10141C000021916105F0E8FC62B6EFF30580A0F1C4
:10142C0010004FEAC0000549014409C99847BDE8BE
:10143C000140034908470000300C0020B87300003D
:10144C0051140000044B9968D869884203D00349B1
:10145C004FF080520A607047300C002004ED00E021
:10146C0010B51446124B9A6A9A6A9B6A13F4007F61
:10147C000BD00F4B9A6B9B6A13F4004F05D021B124
:10148C000B4A936A23F400439362094B9A6A9B6A52
:10149C0013F4807F01D1064B9B6A054A936A43F48F
:1014AC007F439362012104F09AFD2070002010BD4F
:1014BC0000ED00E0074B9A6A9A6A9A6A9A6A9A6AED
:1014CC009A6A9A6A6FEA02426FEA12429A620020A2
:1014DC00704700BF00ED00E070B505461646254B81
:1014EC009A6A9A6A9B6A13F0020F0CD0214B586BC4
:1014FC009B6A13F0800F2FD039B11E4A936A23F0E8
:10150C008003936201E06FF015001A4B9A6A9A6A95
:10151C009B6A13F0100F04D1164B9C6A14F0020452
:10152C0004D0144B5C6814F4006418D1114B9B6A02
:10153C0013F0200F04D00F4A536A23F40053536264
:10154C000C4A936A43F0FF0393620121284604F08E
:10155C0046FD3070204670BD6FF01500D5E729466A
:10156C00FFF712FF04460028E0D080F3098802241C
:10157C00DCE700BF00ED00E008B5844600230B70EB
:10158C001B4BD86A10F002002ED1DB6A002B2CDB2F
:10159C00174BDB6A13F0804328D0DCF8183033F893
:1015AC00022C4DF602739A420FD0114B93F828304F
:1015BC0073B90F4B93F8293083B90D4B5B8D9BB2EC
:1015CC009BB16046FFF776FF0FE0DCF800000CE003
:1015DC000A4601216046FFF77FFF06E00A4601211B
:1015EC006046FFF73DFF00E0002008BD1846FCE711
:1015FC0000ED00E070B58AB00C46224B5968C1F37F
:10160C000801002383F31188BFF36F8F02F07F432F
:10161C00B3F17F4F15D102F00C03082B14D012F04C
:10162C00080F0BD000260DF12702204604F0DCFC3D
:10163C0005469DF8273053B10AB070BD044601260B
:10164C00F1E700263446EEE700263446EBE720228D
:10165C00214601A804F08DFD4EB1089BC3F308028E
:10166C005AB96FEA53236FEA4323089305E0089BAA
:10167C0023F4FF7323F00103089301A9284604F017
:10168C0098FCD9E700ED00E0024A536943F01003DF
:10169C005361704700ED00E0EFF30880EFF3098130
:1016AC0001B57246FFF7A6FF01BD00BF002206E0A0
:1016BC0002F00F01094B0B44202119760132262A26
:1016CC000ADC53B2002BF3DB03F1604303F56143F7
:1016DC00202183F80013F1E7704700BFFCEC00E019
:1016EC00002080F31488BFF36F8F05F0F1FD00200C
:1016FC000D490860BFF34F8F0C4880F3088800F049
:10170C002DF8202080F3118809484FF4026140180D
:10171C0080F30988EFF314800221084380F31488C6
:10172C00BFF36F8FFFF79AFD94ED00E0E0160020F9
:10173C0060180020084BD3F89000C0F3072000235A
:10174C0006E0054AC2F898300021C2F8A010013317
:10175C008342F6DB704700BF00ED00E010B572B6B7
:10176C00002484F31388FFF7E5FF234608E003F118
:10177C0020010E4A4FF0FF3042F821000133DBB25A
:10178C00072BF4D9002308E003F16001074A4FF05E
:10179C00FF3042F821000133DBB2072BF4D962B6DB
:1017AC00BFF34F8FBFF36F8F10BD00BF00E100E0A0
:1017BC0008B50A4B9B68834202D003F0E5FE08BDD6
:1017CC00EFF30583002BF8D0054B5A6842F080529A
:1017DC005A605A6A22F400425A62EEE7300C00203A
:1017EC0000ED00E008B5034B034A0121034804F067
:1017FC0081FC08BD0000012000000020D075000015
:10180C0008B5D0F89830203B04480360202343608F
:10181C00034B8360012104F071FC08BD48060020D5
:10182C0000000B15084AC2F898000B6823F01F0340
:10183C00034343F01003C2F89C308B6843F0010360
:10184C00C2F8A030704700BF00ED00E010B5034CAB
:10185C000123227804F026FC207010BD760C0020A9
:10186C0008B50023094A127804F01CFC10F1160F7D
:10187C000AD0034606E0064AC2F898300021C2F8A6
:10188C00A0100133072BF6DD08BD00BF760C00203D
:10189C0000ED00E0044B0522C3F89420BFF34F8FFA
:1018AC00BFF36F8F704700BF00ED00E0BFF35F8F99
:1018BC00024B0022C3F89420704700BF00ED00E0FB
:1018CC0038B50E4B1D68082D15D8FFF7EFFF002417
:1018DC0009E00A4B596804EB440293001944204672
:1018EC00FFF7A0FF0134A542F3D8054B1D70FFF79D
:1018FC00D1FF002038BD4FF0FF30FBE7EC75000046
:10190C00760C0020014B1860704700BF08000020C7
:10191C004FF02003EFF3118283F31288BFF36F8F24
:10192C0001230649C1F840354FF08041C1F87835A4
:10193C0082F31188BFF36F8F0020704700E00140E5
:10194C00C0B24FF08042C2F81C05BFF34F8F05495F
:10195C00CA6802F4E062044B1343CB60BFF34F8FB1
:10196C0000BFFDE700ED00E00400FA0530B108B55A
:10197C008001034B43F00103984708BD704700BF3B
:10198C008075000000487047A4060020034BC01A65
:10199C008010034B03FB00F0704700BF640600206F
:1019AC00B76DDBB638B505460C46FFF7EFFF0146C1
:1019BC004022034804F0B4FC01462846A04738BD39
:1019CC004073000030B583B005460C46FFF7DEFFD0
:1019DC000146402300932346054A064804F0BAFC0E
:1019EC00011E01DB03B030BD2846A047FAE700BF5B
:1019FC00A96300004073000010B54FF02003EFF313
:101A0C00118483F31288BFF36F8F134A136843F06A
:101A1C000203136013F0010F08D1002384F3118823
:101A2C00BFF36F8F9BB904F0C1FC10BD4FF0804326
:101A3C00D3F80C24D3F80C3412F0010F01D100238D
:101A4C00ECE7FFF79FFF04F046FC0123E6E70021DB
:101A5C00024804F053FCE8E7B40600204073000091
:101A6C0008B50A4BBFF35B8F53E8002F22F002013D
:101A7C0043E800100028F7D1BFF35B8F12F0010F81
:101A8C0000D008BD04F097FCFBE700BFB4060020B3
:101A9C0000B585B0CDF800D0CDF804D0002302936A
:101AAC00012303936B46074A04F070FC002805DB06
:101ABC004FF480420023684602F0F6FF05B05DF853
:101ACC0004FB00BFCD63000008B5074B1B781BB1AE
:101ADC00002004F0ACFF08BD4FF4A57005F0D4FB5A
:101AEC00014B01221A70F3E7770C002070B5054604
:101AFC00002201211046FFF797FB134801F046FC2A
:101B0C00124B98421CD1286900F092F904F080FF26
:101B1C000024012C12D82146284604F08CFB0646E2
:101B2C002146284604F092FB094904F002F90028EA
:101B3C0005DB0123B3601C44E4B2EAE7002070BD6E
:101B4C006FF00400FBE700BF611B00000000AD0B51
:101B5C003C76000008B5012810D0032815D000B140
:101B6C0008BD00210A4804F066FB836813F0070FD8
:101B7C00F6D10021064804F0C1FBF1E704F03FFC6C
:101B8C000121034804F0BAFBEAE700F067F9E7E744
:101B9C004073000070B5054605F0EFF820B9214BF5
:101BAC001B789BB1002300E001231C4683B14FF04E
:101BBC002003EFF3118683F31288BFF36F8F6CB998
:101BCC004FF080430222C3F8082307E00123ECE71F
:101BDC000026F4E7CCB13046FFF7ECFA4FF0804228
:101BEC00D2F8183403F00303D2F8182412F4803F0F
:101BFC0010D10022002AEDD00BB1012DEAD15CB13D
:101C0C0086F31188BFF36F8F70BD2120002103F084
:101C1C0089FCE3E70122EDE74FF080430222C3F891
:101C2C000423F1E7790C002008B5C1B2014804F097
:101C3C000DFB08BD4073000010B50446104B01218C
:101C4C00BFF35B8F53E8002F43E800100028F9D155
:101C5C00BFF35B8F1AB1631E012B0DD910BD094860
:101C6C0004F0F4FA084900234B608B60CB6001232D
:101C7C008B6004F07BF8EEE72046FFF78BFFEDE777
:101C8C00B8060020407300005406002010B582B046
:101C9C0004460E4B18688368DB683921984730B9C5
:101CAC000A4B186883681B696A460C21984750B91F
:101CBC00019B074A82FB0312DB17C3EB2243009AFA
:101CCC0003EB8203238002B010BD00BFD4060020BA
:101CDC0083DE1B4308B5024B186804F07DFB08BD7E
:101CEC00D006002000B583B000220023CDE90023EC
:101CFC004FF400320023054803F03EFEFFF7EAFFE5
:101D0C00034B00221A6003B05DF804FB7001002045
:101D1C00BC06002008B501F04DFB024B01221A70E5
:101D2C0008BD00BF780C002008B5054B1B681BB123
:101D3C00044803F003F808BDFFF7ECFFFBE700BF16
:101D4C00D40600200C00002000B583B00023ADF8B1
:101D5C0006300DF10600FFF799FF80B10023124AFF
:101D6C001370114A12780AB1012B13DD0F4BBDF819
:101D7C0006201A80FFF7CEFF03B05DF804FBBDF917
:101D8C0006300A4AB2F900209B1A002BB8BF5B42FE
:101D9C001BB2E6E7013A044B1A70054A136801338B
:101DAC001360FFF79FFFE7E7780C0020740C00200E
:101DBC00DC06002008B5034A0349044B186804F0FC
:101DCC000FFB08BD351D0000C0060020D00600200A
:101DDC0008B5094B0122BFF35B8F53E8001F0029A4
:101DEC0003D143E800200028F7D1BFF35B8F01D16A
:101DFC00FFF7E0FF08BD00BFBC06002008B5034B91
:101E0C0000221A70FFF7E4FF08BD00BF780C002019
:101E1C0008B50548054B186004F06EFF08B10020AA
:101E2C0008BD6FF01200FBE7A0730000D406002081
:101E3C00034B18600023034A1360034A1360704776
:101E4C00D0060020D8060020DC06002008B5024889
:101E5C0005F020FA08BD00BF7001002008B5034A48
:101E6C00136801331360FFF73DFF08BDD80600204F
:101E7C0010B504460A2807D0074B1868E1B28368EE
:101E8C005B689847204610BD034B186883685B68F5
:101E9C000D219847F0E700BFE006002010B5044C78
:101EAC002046FFF72FFD2046FEF7BAFA10BD00BF03
:101EBC007D1E000008B50648064B186004F01CFF98
:101ECC0018B1FFF7EBFF002008BD6FF01200FBE725
:101EDC0070730000E006002008B90248704700202B
:101EEC00704700BF58730000F0B585B00E46194618
:101EFC0043681B7B06F01F0545EA4315B2F5001F2E
:101F0C0022D007461446002302930393104604F094
:101F1C00F3FA8DF808007B689968F14011F0010F15
:101F2C0002D1B4F1A07F14D0002302AA194628468E
:101F3C0001F03EFC194B98422CD10121284601F0AE
:101F4C0001FE002005B0F0BD284601F053FE002034
:101F5C00F8E705F01F0303F5E0734FF0A04252F8C9
:101F6C00233013F0010FDFD10DF10701284601F0EA
:101F7C008DFD0B4B984203D00DF107030393D3E770
:101F8C000DF1070001F0D6FD044B9842F4D06FF030
:101F9C000B00D7E76FF00400D4E700BF0000AD0BD7
:101FAC000400AD0B30B583B004460DF1070101F010
:101FBC006DFD0546204601F047FE0B4B98420FD1B4
:101FCC009D4205D0084B984207D1002003B030BD8C
:101FDC009DF8070001F0A6FDF4E76FF00400F5E7AB
:101FEC006FF00400F2E700BF0000AD0B2DE9F043E9
:101FFC0087B0D0F8048098F80C3001F01F0545EA42
:10200C004315002A44D00C46174600260396049626
:10201C000DF11701204601F039FD8146334603AA24
:10202C003146284601F0C4FB304B98425BD19945B0
:10203C0036D017F4003F43D00DF10301384604F0BD
:10204C00E2F9064640BB9DF803308DF8043017F4D6
:10205C00803F0CBF012300238DF80530384604F077
:10206C0018FA8DF8060017F4002F1ED0D8F804309B
:10207C00012101FA04F4C3F80845002201A92846FD
:10208C0001F048FC194B984206D06FF0150603E09E
:10209C002846FFF787FF0646304607B0BDE8F083B9
:1020AC009DF8170001F03EFDC3E717F4802FE4D034
:1020BC00D8F80420012303FA04F4C2F80C45DCE739
:1020CC00384604F0E6F98DF8080000231A4602A9F8
:1020DC00284601F06DFB054B984201D10026DBE749
:1020EC006FF01506D8E76FF01506D5E70000AD0BBD
:1020FC0008B501F00DFD08B1002008BD01F0DEFCB3
:10210C00084B98420AD10021074801F0B9FC002283
:10211C0005210620FFF788F80020EEE76FF0040099
:10212C00EBE700BF0000AD0BA365000008B54368EA
:10213C001B68D3F80805D3F80C1502F001F9044B11
:10214C00984201D1002008BD6FF00F00FBE700BFE3
:10215C000000AD0B10B504692346084A04F12001B8
:10216C00406802F01DF8064B984204D1012384F814
:10217C003030002010BD6FF00400FBE79D23000001
:10218C000000AD0B2DE9F04F8FB0079088469146BB
:10219C000169039142680292D1F838A01289059224
:1021AC00002209920A920B920C920D928DF8253016
:1021BC0091F8303023B9FFF7CDFF0028C0F2E18051
:1021CC004FF0FF324FF0FF33039C204602F06CFCC3
:1021DC0023461033184606930022002302F064FCB9
:1021EC00029802F027F800263446049643E00022B9
:1021FC0001920AB9002C6AD020466A68A118DDF851
:10220C0014C0614500F2B18013F0010F59D06B6816
:10221C001C44A4B2019B6BBB002C6CD158F80B3046
:10222C000C936B680A932B7A03F001028DF824202F
:10223C0013F0020F63D0002209A9029802F066F88D
:10224C00524B98425DD14FF480420023069802F025
:10225C002BFC049000285FD1039B5A6B4B4B9A428A
:10226C0040F08B802B7A13F0010F02D00C9B9A4517
:10227C0065D000243E464E456DD206EB46054FEA2E
:10228C00850B08EB85052B7A13F0080F60D1771CB2
:10229C004F45ACD213F0020F0DD107EB470208EB00
:1022AC008202127A12F0040F07D15A4012F0010F79
:1022BC0005D000229CE700229AE7002298E7012231
:1022CC0096E758F80B10504403F053FF9FE713F0B8
:1022DC00010F9FD158F80B1001F06043B3F1005F70
:1022EC0098D06A68029B5B899A4242D8504603F0A8
:1022FC0040FFAC888EE7CDF830A00A9493E72022FB
:10230C009AE70B33984203D06FF00403049322E056
:10231C006FF00F0304931EE0029801F09BFF0798E7
:10232C00FFF704FF6FF00403049314E0A41AA4B2A3
:10233C000AEB040158F8000003F01BFF013E06EB0A
:10234C004603980008EB83035A689442EED290E758
:10235C006FF085030493029801F07CFF039802F060
:10236C007FFB04980FB0BDE8F08F6FF01B03049354
:10237C00F1E76FF015030493EDE76FF0040304939A
:10238C00E9E76FF004030493EBE700BF0000AD0B2B
:10239C0008B50378012B0CD0022B0DD013B1084BD0
:1023AC004B6301E0074B4B6301F1100002F058FB4B
:1023BC0008BD054B4B63F7E7044B4B63F4E700BFD9
:1023CC000100AD0B0000AD0B0100AE0B0200AE0B1B
:1023DC00014B01221A60704700C0004003690C29B0
:1023EC0010D15B6A094901FB03F3094880FB031018
:1023FC00D917C1EBA0411160064800FB11335360A3
:10240C00002070476FF08500704700BF90D003002C
:10241C0083DE1B4340420F002DE9704384B00469F6
:10242C00A36A7BB3392901D00C292ED104F11006F3
:10243C004FF0FF384FF0FF3942464B46304602F022
:10244C0041FA0025019502950395114B0193032345
:10245C0002936946A06A03F089FC42464B4620462B
:10246C0002F022FBA06A03F0DDFC0A4BD3F808252E
:10247C00626201225A60304602F0AEFA284604B07D
:10248C00BDE870836FF00A00F9E76FF08500F6E79E
:10249C00DD23000000C0004010B504690020FFF7E8
:1024AC00C3FBA0624FF0FF320021204604F0BFFCBA
:1024BC0004F1100004F0B4FC002201210C20FEF702
:1024CC00B3FE0C20FEF780FE024B0122C3F804235E
:1024DC00002010BD00C0004008B50069044B00226C
:1024EC00C3F80021D3F8003102F0BAFA08BD00BFDE
:1024FC0000C00040034BD3F81C01003818BF01206A
:10250C00704700BF00200040034B0022C3F81C2181
:10251C00D3F81C31704700BF00200040B1F5164FB6
:10252C006DD03BD8B1F5165F6BD00AD9B1F5E14F40
:10253C0072D025D947F6122399422CD14FF40003BF
:10254C0013E0B1F5966F5ED007D9B1F5166F60D078
:10255C00B1F5965F11D13A4B07E0B1F5967F55D0A6
:10256C00B1F5167F06D14FF41C33364AC2F8243528
:10257C00002070476FF0150070476FF01500704722
:10258C00B1F5615F4AD0B1F5964F01D12E4BECE716
:10259C006FF0150070476FF015007047B1F5613F93
:1025AC003FD009D9B1F5612F42D01DD9274B9942A3
:1025BC0043D14FF08053D8E7B1F5963F33D004D9CF
:1025CC00B1F5E13F0DD1224BCFE74DF6C023994237
:1025DC002BD0B1F5614F01D11E4BC6E76FF0150042
:1025EC0070476FF0150070471B4B994222D0B1F524
:1025FC00E12F01D1194BB8E76FF015007047184B5C
:10260C00B3E7184BB1E74FF49E23AEE74FF4A0337A
:10261C00ABE74FF41D23A8E7134BA6E74FF46C135D
:10262C00A3E7124BA1E7124B9FE74FF465039CE71E
:10263C00104B9AE74FF0806397E76FF015007047E7
:10264C0000B013000020004000A04E0040420F00DC
:10265C0000E0D70100F0EB0090D0030000705F07A2
:10266C0000509D000050270000F0750000B0AF0333
:10267C0000903A0100D0BE0E084BD3F808314BB194
:10268C00064B0020C3F80801D3F80821D3F81835FD
:10269C000B7070474FF0FF30704700BF00200040B8
:1026AC00024BD3F88004C3F880047047002000402C
:1026BC0030B583B005694B79012B29D10C468B7948
:1026CC00032B28D1CB7923B16FF08503184603B0C7
:1026DC0030BD8DF804300B7923B1022B14D06FF080
:1026EC008503F3E700238DF805302168FFF716FF0B
:1026FC00034698B99DF805100A4AC2F86C1594E87F
:10270C00030085E80300E1E70E238DF80530ECE7C4
:10271C006FF08503DAE76FF08503D7E76FF0850379
:10272C00D4E700BF0020004038B50C4604F025FB70
:10273C00C0B96425194B0122BFF35B8F53E8001F0E
:10274C00002903D143E800200028F7D1BFF35B8FA9
:10275C000BD02120002102F0E5FE013D15F0FF0514
:10276C00E8D102E00D4B01221A60FFF7CDFE0C4BB5
:10277C0001229A60C3F81C454FF47A74FFF7BAFE35
:10278C0020B9012004F02DF9013CF7D1044B0122B2
:10279C00DA60024B00221A6038BD00BF2C07002003
:1027AC000020004070B582B00446066943680021E1
:1027BC00114AC2F800151D6801AA284603F0DDFF76
:1027CC00002805DB019B2A681979186800F064FA67
:1027DC0000280FDB31462046FFF76AFF50B9064B45
:1027EC000422C3F800250022C3F80821D3F80821DD
:1027FC0001221A6002B070BD0020004021F07F4120
:10280C0000F5A870014B43F82010704700100140F0
:10281C0000F5A870014B53F82000704700100140E0
:10282C004FF480338340024AC2F84433704700BFF0
:10283C00001001404FF480338340024AC2F8483301
:10284C00704700BF00100140014BD3F804057047DE
:10285C000010014010B5012383406FEA030C104AAD
:10286C00BFF35B8F52E8001F01EA0C0E42E800E454
:10287C00002CF7D1BFF35B8F4FF4803202FA00F0DB
:10288C0002F1804202F58052C2F80803BFF35F8F59
:10289C00BFF36F8F0B4214BF0120002010BD00BF8F
:1028AC003407002070B5044603F005FF05464FF4CD
:1028BC008033A340174AD2F80423134205D10026D3
:1028CC00284603F001FF304670BD0123A340DB43D3
:1028DC00114ABFF35B8F52E8001F01EA030042E884
:1028EC000006002EF7D1BFF35B8F59B904F15003EA
:1028FC009B009BB203F1804303F588331B6813B133
:10290C00012300E001231E46002BD9D0204603F002
:10291C00C3FED5E7001001403007002001B9704715
:10292C0001238340114ABFF35B8F52E8001F194308
:10293C0042E8001CBCF1000FF7D1BFF35B8F4FF4E2
:10294C00803383400A4AC2F80433BFF35B8F094BD0
:10295C001B68BFF35B8F23FA00F010F0010FDED081
:10296C00054B4FF40032C3F80021D8E734070020A0
:10297C00001001403007002000E100E02DE9F84391
:10298C00074614461E461046194603F091FE0546AE
:10299C00154B1A68A01A1C605E60A5F50013B3F500
:1029AC00400F09D3002402F019FF3846FFF730FF1F
:1029BC00A8420ED0BDE8F8830C4B1B681A0A1B0604
:1029CC0015EB030842F10009094BC3E90089012406
:1029DC00E9E71CB13846FFF723FFEBE74FF40001A2
:1029EC003846FFF70BFFF5E7D0030020380700202F
:1029FC00B803002038B50D4B1C68250A2406BFF31C
:102A0C005F8FFFF721FF0346001945F10001B3F575
:102A1C00801F0AD2064BD3E90023904271EB0303CB
:102A2C0003D210F1807041F1000138BD380700204D
:102A3C00B8030020F8B5064614461D461046194644
:102A4C0003F036FE0746FFF7D5FFA04271EB0503F6
:102A5C001DD2231A65EB01011B4A934271F100034D
:102A6C002FD21A4B03EB0613D3E90223AB4208BF58
:102A7C00A2421AD03946304603F02BFE394603F0F9
:102A8C0007FE001945F1000304461D460DE0012325
:102A9C00B3400F4ABFF35B8F52E8001F194342E863
:102AAC0000100028F8D1BFF35B8F084B320103EB09
:102ABC000616C6E9024506999950079B73600020DB
:102ACC00F8BD6FF01500FBE701000001C00300200A
:102ADC003007002030B583B000231D4AC2F80835FA
:102AEC00002B24DD1A4C0225C4F80453194B4FF467
:102AFC000032C3F88021002201211120FEF794FB43
:102B0C001120FEF761FB0123A3602360124A1360BE
:102B1C0000240194114B0093114A0023204603F02A
:102B2C0013FE2846FFF788F8204603B030BD0D4A47
:102B3C0002EB03124FF0FF304FF0FF31C2E90201FC
:102B4C004FF480329A400249C1F804230133C7E79D
:102B5C000010014000E100E034070020892900004A
:102B6C00FFFF7F00C00300202DE9F04782B0044630
:102B7C00FFF798FE10B902B0BDE8F087FFF73AFFF7
:102B8C0082460E4603F097FD0546134B03EB0413E8
:102B9C00D3E90289C24576EB09030BD200262846FD
:102BAC0003F092FD002EE6D0009742464B4620469D
:102BBC00B047E0E7084A230102EB0411D6584F68EE
:102BCC000020D0504FF0FF324FF0FF33C1E9022309
:102BDC002046FFF72FFEE2E7C003002010B50E4B96
:102BEC00D3F8043313F0020F0DD00B4BD3F8043190
:102BFC004BB1094B0022C3F80421D3F80431074A26
:102C0C001368013313600024002C00DD10BD204636
:102C1C00FFF7AAFF0134F7E7001001403807002046
:102C2C0010B582B0B0F1FF3F06D0012806DDB0F53B
:102C3C00000F05DA441E04E00F48F8E7002400E01A
:102C4C000D4CFFF7D7FE0D4B19685B68401AB0F5B9
:102C5C00000F00D300242044421CB2F5000F00D317
:102C6C00054A00208A1801900549009143F10003A0
:102C7C0003F06AFD02B010BDFFFF7F00D0030020FF
:102C8C008929000008B5FFF7B5FE024B1B68C01A76
:102C9C0008BD00BFD00300202DE9F04106460F46C9
:102CAC009046002415E005F03F05C8F80C5556F881
:102CBC00242002F01F00012101FA00F04FF0A04285
:102CCC00C2F808050A4656F8240003F070FD0134DA
:102CDC00E4B2BC4280F04081A00056F82450C5F309
:102CEC0003232A0C192A00F2398101A151F822F090
:102CFC00B32C0000652D00007B2D0000A52D0000DD
:102D0C00BB2D0000E52D00000F2E0000692F0000E8
:102D1C00692F0000692F0000692F0000252E00008C
:102D2C003D2E0000692F0000692F0000692F000064
:102D3C00692F0000692F0000692F0000692F000027
:102D4C00692F0000692F0000552E0000992E0000FD
:102D5C00DD2E0000212F000005F03F05C8F81455AA
:102D6C000022114656F8240003F021FDAFE705F0D0
:102D7C003F05C8F8085556F8242002F01F00012121
:102D8C0001FA00F04FF0A042C2F808050A4656F8C6
:102D9C00240003F00CFD9AE705F03F05C8F8105528
:102DAC000022114656F8240003F001FD8FE705F0D0
:102DBC003F05C8F8085556F8242002F01F020121DF
:102DCC0001FA02F24FF0A040C0F80C25002256F890
:102DDC00240003F0ECFC7AE705F03F05C8F80C552D
:102DEC0056F8242002F01F00012101FA00F04FF0E8
:102DFC00A042C2F80C050A4656F8240003F0D7FC92
:102E0C0065E705F03F05C8F810550022114656F845
:102E1C00240003F0CCFC5AE705F03F05C8F8085530
:102E2C0003B9062300221146305803F0C0FC4EE7CC
:102E3C0005F03F05C8F80C5503B9062300221146CE
:102E4C00305803F0B4FC42E705F03F05C8F8605574
:102E5C0056F8242012F4005F0ED102F01F0201215B
:102E6C0001FA02F24FF0A041C1F80C2501221146E3
:102E7C00305803F09CFC2AE702F01F02012101FAF2
:102E8C0002F24FF0A041C1F80825EFE705F03F052D
:102E9C00C8F8645556F8242012F4005F0ED102F0E5
:102EAC001F02012101FA02F24FF0A041C1F80C25DA
:102EBC0001221146305803F07AFC08E702F01F0299
:102ECC00012101FA02F24FF0A041C1F80825EFE709
:102EDC0005F03F05C8F8685556F8242012F4005F39
:102EEC000ED102F01F02012101FA02F24FF0A041B3
:102EFC00C1F80C2501221146305803F058FCE6E6C7
:102F0C0002F01F02012101FA02F24FF0A041C1F8B8
:102F1C000825EFE705F03F05C8F86C5556F8242056
:102F2C0012F4005F0ED102F01F02012101FA02F22D
:102F3C004FF0A041C1F80C2501221146305803F086
:102F4C0036FCC4E602F01F02012101FA02F24FF036
:102F5C00A041C1F80825EFE7002001E06FF08500E3
:102F6C00BDE8F081BFF34F8F0549CA6802F4E062F7
:102F7C00044B1343CB60BFF34F8F00BFFDE700BF83
:102F8C0000ED00E00400FA05024BD3F80034002BEE
:102F9C00FAD0704700E0014008B5034BC3F80405B4
:102FAC00FFF7F2FF08BD00BF00E00140014B024AF1
:102FBC001A607047600000200090D00338B503F011
:102FCC0011FC40B14FF08053D3F82433C3F30423E6
:102FDC007D4AC2F8403503F017FC10B17B4B7C4A9C
:102FEC005A6703F027FC48B14FF08053D3F84432B2
:102FFC00C3F342334FF08042C2F83C3503F02CFC53
:10300C0030B1744AD2F8FC3023F08073C2F8FC3033
:10301C0003F038FC40B14FF080430022C3F80C2180
:10302C00C3F81021C3F8382503F03EFC20B14FF053
:10303C0080430322C3F8A02503F04CFC60B1664B1F
:10304C000522C3F810260122C3F888260022C3F8F3
:10305C0018263F22C3F8142603F052FC002846D051
:10306C004FF08052D2F804145C4BC3F82015D2F800
:10307C000814C3F82415D2F80C14C3F82815D2F888
:10308C001014C3F82C15D2F81414C3F83015D2F858
:10309C001814C3F83415D2F81C14C3F84015D2F820
:1030AC002014C3F84415D2F82414C3F84815D2F8E8
:1030BC002814C3F84C15D2F82C14C3F85015D2F8B8
:1030CC003014C3F85415D2F83414C3F86015D2F880
:1030DC003814C3F86415D2F83C14C3F86815D2F848
:1030EC004014C3F86C15D2F84424C3F8702503F0CF
:1030FC0029FC48B14FF08053D3F8583203F04F03FA
:10310C004FF08042C2F8E43E03F02EFC60B14FF069
:10311C008043D3F8003413F0010F05D04FF08043F7
:10312C006FF00102C3F8002403F030FC30B12C4ADC
:10313C00D2F83C3743F48063C2F83C3703F03AFCD6
:10314C0038B14FF01023D3F808224FF08043C3F866
:10315C0058254FF01023D3F80C3213F0010F0ED179
:10316C004FF01023D3F80032002B1ADB4FF0102352
:10317C00D3F80432002B14DBFFF718FF38BD012005
:10318C00FFF70AFF4FF01022D2F80C3223F00103A4
:10319C00C2F80C32FFF7F8FE0020FFF7FDFEFFF738
:1031AC00E1FE0120FFF7F8FE4FF010241525C4F8BE
:1031BC000052FFF7E9FEC4F80452FFF7E5FE0020C9
:1031CC00FFF7EAFEFFF7CEFE0030014000C00740DB
:1031DC000DF0ADBA00ED00E00050004000C0004022
:1031EC000010004010B50468B4FA84F3C3F11F0357
:1031FC005FFA83FC002B16DB012202FA03F324EAAC
:10320C000303BFF35B8F50E8002FA24204D140E8C8
:10321C00003EBEF1000FF6D1BFF35B8FE3D181F816
:10322C0000C0024810BD0248FCE700BF0000AD0B17
:10323C000200AD0B0368CB4013F0010F15D100B5A4
:10324C00026801238B401343BFF35B8F50E800CF20
:10325C00944504D140E8003EBEF1000FF6D1BFF317
:10326C005B8FEDD102485DF804FB0248704700BF4C
:10327C000000AD0B0400AD0B0D4BD3F8FC1041F06E
:10328C008072C3F8FC20A3F55D43186840F001027E
:10329C001A605A68074B5B689B1AB3F50A5FF9D33F
:1032AC00044B186003F55D43C3F8FC10704700BF76
:1032BC0000ED00E0001000E070B582B0054618B1DA
:1032CC00012816D002B070BD4FF080430222C3F823
:1032DC0008230022C3F80421D3F804210122DA6068
:1032EC0001238DF807309D420FD0002642F2107456
:1032FC0029E04FF080430122C3F808230021C3F8D2
:10330C000011D3F800115A60EAE70DF10706EDE75A
:10331C0036B14FF08043D3F8183403F00303336015
:10332C004FF08043D3F8183413F4803F22D100239C
:10333C0023B31EB19DF80730012B1FD1012003F0E0
:10334C0050FB013C1AD0002DE2D0012D01D00023FE
:10335C00EEE736B14FF08043D3F80C3403F00103A1
:10336C0033704FF08043D3F80C3413F4803F03D107
:10337C000023DDE70123DBE70123D9E7012DA1D1F0
:10338C00014B00225A719DE73C070020064B1B792C
:10339C0043B9054B00229A711860012119715A71B9
:1033AC0002487047024870473C0700200000AD0BF4
:1033BC000C00AD0B4FF08042D2F80C3403F001033B
:1033CC00D2F80C2412F4803F04D100221AB31BB99A
:1033DC00144870470122F9E74FF08043D3F81834B2
:1033EC0013F4803F00D10022BAB10F4B9B79B3B9D3
:1033FC004FF080430022C3F80C21D3F80C21082293
:10340C00C3F80423012208498A710221C3F8341C31
:10341C001A610648704703487047024870470448D1
:10342C00704700BF0500AD0B3C0700200000AD0B42
:10343C000B00AD0B08B54FF08043D3F800318BB1C6
:10344C004FF080430022C3F80021D3F80021012261
:10345C00C3F808231C4B5B7923B91B4B5A711B68AF
:10346C00002098474FF08043D3F804316BB14FF0F4
:10347C0080430022C3F80421D3F804210222C3F8AC
:10348C000823114B1B68012098474FF08043D3F859
:10349C000C31BBB14FF08043D3F8043313F0080F59
:1034AC0010D04FF080430022C3F8342CC3F80C2109
:1034BC00D3F80C110821C3F80813034B9A711B683D
:1034CC000320984708BD00BF3C0700200830034B81
:1034DC0033F8100000F00100704700BF64000020BA
:1034EC000830034B33F81000C0F34010704700BF96
:1034FC00640000200830044B33F8100010F01C005E
:10350C0018BF0120704700BF640000200830034B37
:10351C0033F81000C0F34000704700BF6400002077
:10352C000830024B33F81000400B70476400002049
:10353C00002204E04FF0FF3383420FD001321F2AE8
:10354C000AD802F10803064931F8133013F4807FCE
:10355C00F0D0C3F34323EFE70020704701207047FE
:10356C0064000020002313B14FF0FF307047074A6E
:10357C0052F83320824201D00133F4E7034A02EBC4
:10358C00C30252688A42F7D1184670476400002083
:10359C000830064B33F8100010F4807F04D0C0F3D1
:1035AC00432003EBC00070470020704764000020EC
:1035BC0070B504460D46FFF7EBFF20B10668426874
:1035CC0029462046B047044B9B6823B1024AD26877
:1035DC0029462046984770BD6400002000F108027F
:1035EC000E4B33F8123013F4807F16D010B5C3F3A2
:1035FC004324104623F4F853084A22F8103020468E
:10360C00FFF796FF00B110BD0448002340F834309A
:10361C0021465430FFF70EFEF5E77047640000209A
:10362C0010B50446FFF75CFF40B12046FFF778FF6A
:10363C0000F5A270064B002243F820202046FFF72D
:10364C00CDFF0834034B002223F8142010BD00BF1B
:10365C00006000406400002070B582B006460C4645
:10366C001546FFF7BBFF24B329462046FFF77AFF28
:10367C00031E13DB104A42F8334002EBC3014D60CA
:10368C005B029BB206F1080032F810100B4343F4B6
:10369C00807322F81030094802B070BD0DF107019B
:1036AC000748FFF79FFD054B9842F5D19DF8073071
:1036BC00E0E70248F0E700BF640000200000AD0B1B
:1036CC00B8000020F0B583B0002301A808E04FF04B
:1036DC00A042D2F8201540F8041BC2F82015013383
:1036EC00002BF4D000259DB31E4B0022C3F87C2187
:1036FC00D3F87C3101A803F05AFA0028F2D103B0B8
:10370C00F0BD90FAA0F0B0FA80F000EB451000F19B
:10371C000802154B33F81210C60800F0070301AF6E
:10372C00012404FA03F2BB5D23EA0203BB5500F04B
:10373C001F074FF0A04607F5E07356F82320C2F39D
:10374C000142C1F3820103F0E4F9BC40C6F8204504
:10375C0002AB03EB850353F8040C0028D1D10135DF
:10376C00C1E700BF006000406400002038B504468B
:10377C0018E094FAA4F3B3FA83F301229A4024EAF2
:10378C0002040A4A03F5A27352F82350C5F3042528
:10379C0052F82300C0F3014003F0B4F90146284667
:1037AC00FFF706FF002CE4D138BD00BF00600040DD
:1037BC002DE9F041044615461E4669B30F4603F049
:1037CC008BF9002840F0968004F01F0202F5E0719E
:1037DC004FF0A04353F82130002F3FD00C2141F083
:1037EC00030123EA0103002F3AD0397889000B43F7
:1037FC0002F5E0724FF0A04141F82230414A04F149
:10380C00080132F8113023F002039BB222F8113078
:10381C0043F0010322F81130BDB12F78D5F80480A4
:10382C002046FFF773FEE8B1B8F1000F64D1354ABA
:10383C0004F1080132F8113023F01C039BB222F87A
:10384C00113043EA870322F81130002E58D07268E9
:10385C0031682046FFF700FFBDE8F0810021BEE78C
:10386C000021C4E7274A04F1080132F8113023F093
:10387C002003DB04DB0C22F81130B8F1000FD6D09A
:10388C00032F3BD86B681D7837B905F5A2751E4B15
:10389C00002243F82520CAE7384603F034F91A4BC6
:1038AC0005F5A27253F8221021F0030143F82210FF
:1038BC0053F8221021F4473121F4407143F82210BF
:1038CC0053F822C0210201F4F851000400F44030F6
:1038DC0001434CEA010143F822106B039BB2094AE5
:1038EC0004F1080132F81100034343F0200322F8DD
:1038FC0011309CE70548AFE70448ADE70348ABE758
:10390C000348A9E764000020006000400400AD0BF0
:10391C000000AD0BF8B50446164600294DD00D46F7
:10392C0003F0E9F828B12046FFF7DAFD002840F053
:10393C0097802046FFF7DEFD18B16B78012B00F065
:10394C009180A81C04F01F0202F5E0714FF0A04317
:10395C0053F821106F1C4CD0022343F001030028B4
:10396C0049D04FF00C0C43EA0C03002D46D04FF419
:10397C00E06C43EA0C0321EA0301002F41D06B7881
:10398C005B0043F0010300283DD0A878800003437E
:10399C00002D3AD02878000203430B4302F5E07265
:1039AC004FF0A04141F82230314A04F1080132F8BD
:1039BC00113043F0030322F81130002E54D020466E
:1039CC0003F099F8002851D1337803F5A271294AF4
:1039DC0042F82100264904F1080031F8102022F0A9
:1039EC002002D204D20C21F8102072787AB9224825
:1039FC00F8BD0023B1E74FF0000CB4E74FF0000C1A
:103A0C00B7E70023BDE70020C1E70020C4E7B77883
:103A1C00184803F5A27550F8251021F4981121F4DB
:103A2C00F85140F8251050F82560210201F4F851A6
:103A3C00120402F440320A43390501F480110A439E
:103A4C00324340F825205B039BB2094A083432F814
:103A5C0014100B4343F0200322F814300648C7E738
:103A6C000648C5E70548C3E70348C1E70348BFE775
:103A7C0064000020006000400000AD0B0400AD0BA2
:103A8C00014B9860D96070476400002038B504463B
:103A9C000D46FFF725FD40B104F10800044B33F847
:103AAC0010305B0B2B70034838BD0348FCE700BF9C
:103ABC00640000200000AD0B0400AD0B104B93F81C
:103ACC0058300BB10F48704710B50D4C40220021F7
:103ADC0004F1100002F07CFB0620FDF775FB0A4B8D
:103AEC000022C3F87C21D3F87C214FF00042C3F8AC
:103AFC000423012384F858306365044810BD00BFCB
:103B0C00640000200500AD0B006000400000AD0B10
:103B1C00034B93F85800003818BF0120704700BFC2
:103B2C006400002008B501460148FFF783FB08BD7F
:103B3C00B400002008B501460148FFF753FB08BD4F
:103B4C00B400002038B504460D46FFF7C9FC08B395
:103B5C00204602F0D0FFE8B12046FFF7E1FC8300DD
:103B6C0003F580739BB203F1804303F5C04300223D
:103B7C001A601B681D4A00F5A27152F8213043F0FF
:103B8C00010342F8213065B3012303FA00F0C2F8B7
:103B9C00040326E004F10803154A32F81330C3F38A
:103BAC008203042B0ED0052B1CD004F01F034FF006
:103BBC00A042D2F8102522FA03F313F0010F13D010
:103BCC00032100E0032104F01F044FF0A04204F590
:103BDC00E07452F8243023F4403343EA014342F8B2
:103BEC00243038BD0221EEE70221ECE700600040F2
:103BFC006400002010B50446FFF772FCA0B120460B
:103C0C0002F079FF80B12046FFF78AFC0122824046
:103C1C000C4BC3F8082300F5A27053F8202022F0B7
:103C2C00030243F820200BE004F01F044FF0A042E5
:103C3C0004F5E07452F8243023F4403342F8243075
:103C4C0010BD00BF0060004010B50446FFF73EFCFD
:103C5C0008B9094810BD2046FFF7CCFF2046FFF7F6
:103C6C00DFFC04F01F0404F5E0744FF0A0430222C3
:103C7C0043F824200148EDE70400AD0B0000AD0B28
:103C8C0038B501204FF4807300210C4603E040004E
:103C9C0004339BB20131072914D803F1804202F599
:103CAC00C0421268002AF2D00C4AD2F80423104207
:103CBC00EDD003F1804202F5C04200251560126878
:103CCC000443E4E7054BD3F87C311BB92046FFF7DE
:103CDC004DFD38BDFFF7F6FCF8E700BF0060004073
:103CEC00034610F0010F08D1064813F0020F00D064
:103CFC00054813F0040F02D170470448F5E7044857
:103D0C00FAE700BF0100AD0B0100AE0B0000AE0BDB
:103D1C000200AE0B2DE9F84305460C4616461F462D
:103D2C00002380F82E30536833B1D36803F060431E
:103D3C00B3F1005F40F031819C4BC4F8083395F827
:103D4C002F3003F0FF08002B36D117F0140F0CBFE7
:103D5C000123002385F82F3005F10C0CB646BEE884
:103D6C000F00ACE80F00DEF80030CCF80030C7F3E1
:103D7C00001385F830302F627378C4F8883500232F
:103D8C00C4F80431D4F80421C4F82431D4F8242123
:103D9C00C4F86031D4F86021C4F84831D4F8483103
:103DAC003946204602F08AFF3378032B00F2A880B4
:103DBC00DFE803F055943708AB68C4F80433DFF838
:103DCC00F09181E0336903F06043B3F1005F40F0A0
:103DDC00E7804FF48073C4F80032F2687368C4F85B
:103DEC004425C4F848350023C4F85031D4F8503178
:103DFC0001232362A360D4F85031002BFBD00023A5
:103E0C00C4F85031D4F850313269B368C4F8442541
:103E1C00C4F848354FF48023AB600823DFF8949145
:103E2C0032E0F2687368C4F84425C4F84835336945
:103E3C0003F06042B2F1005F40F0B580B268C4F8A4
:103E4C003435C4F838254FF48453C4F800320223B7
:103E5C00AB60012323620823DFF8589114E0F26869
:103E6C007368C4F84425C4F8483517F0200F2ED0D9
:103E7C004FF48073C4F800324FF48023AB600123FD
:103E8C0023620823DFF82C9117F0080F07D1327842
:103E9C00032A04D00122E250736803B962612B68D3
:103EAC0093B317F0040F01D00023AB6017F0400F51
:103EBC0003D1AB6843F00203AB60AB6843F400730F
:103ECC00AB60AB68C4F804334846BDE8F8834FF4E4
:103EDC000073C4F800320223AB60D0E7F268736859
:103EEC00C4F83425C4F838354FF48053C4F8003284
:103EFC000223AB60012323620023DFF8B890C3E7F1
:103F0C000823DFF8B490BFE7434600E06BBBD4F85E
:103F1C00482102B10123D4F804212AB10023C4F8AA
:103F2C000431D4F804310123D4F82421002AEDD033
:103F3C000022C4F82421D4F82421D4F86021D4F828
:103F4C00001212B111F4007F03D1012323626361CB
:103F5C004346002ADAD011F4807FD7D00023C4F86E
:103F6C004831D4F848314346D1E7D4F8C404C4F8F6
:103F7C00C404002385F82F3018B1FFF7B1FE814639
:103F8C00A2E717F0400F9FD12946204602F028FEE9
:103F9C00002899D1DFF8249096E7DFF8249093E776
:103FAC00DFF81C9090E7DFF818908DE702029C0177
:103FBC000B00AD0B0000AD0B0400AD0B0100AD0B05
:103FCC000A00AD0B30B587B004460D46D0F824314D
:103FDC0043B10023C0F82431D0F82431D0F8043197
:103FEC00002B61D0D4F80431002B7DD00023C4F811
:103FFC000431D4F804312B6A13F0400F03D195F837
:10400C002E30002B67D02B6A13F0040F30D10DF13A
:10401C00040C05F10C0EBEE80F00ACE80F00DEF846
:10402C000030CCF800300023C4F86031D4F86021A3
:10403C00C4F85C31D4F85C3195F8303013B195F894
:10404C002E30ABB10023C4F80032AB60524BC4F835
:10405C000833220B44F30733002B09DB02F01F0259
:10406C005B09012101FA02F260334C4941F823202B
:10407C00D4F8C434C4F8C43413F0020F73D0012341
:10408C008DF8003095F830300BB985F82F302B6A4D
:10409C0013F0040F02D095F82E301BB12B68696811
:1040AC006846984707B030BD8B68C0F808330223C8
:1040BC008B608B68C0F80433D0F8603123B1D0F832
:1040CC00003213F4007F02D10123236263610123C8
:1040DC0085F82E30E6E72946204602F081FD80F077
:1040EC00010085F82E008EE70023C4F84831D4F87F
:1040FC0048312B7B2BBB0DF1040C05F10C0EBEE8EB
:10410C000F00ACE80F00DEF80030CCF8003095F86A
:10411C003030002BACD1C4F80032AB601E4BC4F86D
:10412C000833220B44F30733002BA1DB02F01F02F0
:10413C005B09012101FA02F26033184941F823208E
:10414C0096E74FF40073C4F8003240F20223AB60E0
:10415C0003F1CE73C4F80833AB68C4F804330123FD
:10416C00A36023629EE713F0040F03D002238DF8A3
:10417C00003087E713F0010F03D003238DF80030D4
:10418C0080E795F82E301BB104238DF8003079E7C9
:10419C0000238DF8003075E702029C0100E100E07D
:1041AC00F8B504460D46067907681E49342000FB15
:1041BC00061191F82D1009B11B48F8BDDFF864C049
:1041CC0006FB00F00CEB00014CF800204B600023C8
:1041DC008B6081F8303081F82F306B7B81F8323076
:1041EC00AB7B81F833302946384602F03AFDB0B14A
:1041FC00AB68C7F82435342306FB03F3094AD358BC
:10420C0023B1206840F30730FCF7DEFF054B342266
:10421C0002FB0636012386F82D300448CDE704480E
:10422C00CBE700BF440700200500AD0B0000AD0B31
:10423C000400AD0B027903680621C3F80015044B8A
:10424C00342101FB0233022283F82D20704700BF7A
:10425C0044070020017902680B4B342000FB01332A
:10426C00002199600948C2F80803D2F8000220F432
:10427C00BC50C2F80002C2F80015012283F82D20B0
:10428C0083F82F10704700BF4407002002029C01E6
:10429C0038B504460579342305FB03F31A4AD35881
:1042AC0023B1006840F30730FCF79CFF2046FFF772
:1042BC00D1FF154B342202FB053393F83330D3B9BD
:1042CC00114B02FB053393F83230A3B92368D3F8B2
:1042DC00083503F01F034FF0A04203F5E0730221F1
:1042EC0042F823102368D3F80C3503F01F0303F5B1
:1042FC00E07342F82310044B342202FB05350023F3
:10430C0085F82D3038BD00BF4407002010B513468A
:10431C0090F804C00A460168034C342000FB0C40A2
:10432C00FFF7F8FC10BD00BF4407002008B5024998
:10433C000248FFF747FE08BD44070020003000404C
:10434C002DE9F04100F01F004FF0010808FA00F6CB
:10435C004FF0A043C3F8086501F01F0708FA07F8EF
:10436C00C3F8088500F5E07040F20D6243F8202098
:10437C0007F5E07143F82120042002F032FB002401
:10438C00082C16D84FF0A043D3F81035FB4013F08F
:10439C00010F0ED14FF0A045C5F80C65042002F0BA
:1043AC0020FBC5F80865042002F01BFB0134E4B2C5
:1043BC00E6E74FF0A044C4F80C85042002F011FB92
:1043CC00C4F80885042002F00CFBD4F8101521FA6F
:1043DC0007F717F0010F02D00248BDE8F081024840
:1043EC00FBE700BF0000AD0B0100AD0B10B5144C8A
:1043FC00032323616361134AA261134BE3614FF4FE
:10440C00806323620023A3626362E36222660F4A25
:10441C0062661022A2662367E36663670C49E01D9F
:10442C0001F070FEBFF35F8F0A49204601F06AFE6F
:10443C00BFF35F8F2023A371BFF35F8F10BD00BF4D
:10444C007807002028770000300800202008002082
:10445C003477000038770000034B00E01833034A30
:10446C009342FBD3704700BF40730000B873000049
:10447C0070B50646114B53F8204009E0404217E056
:10448C00EB681870EA68537843F0010353700834F2
:10449C00731C0A4A52F82330A3420DD9656823686D
:1044AC0028469847002DF2D00028EBD00028E5DBF9
:1044BC00FF28E5DDFF20E3E770BD00BF407700007B
:1044CC0010B586B0114CB02303FB004400EB400246
:1044DC000F4B03EBC2030F4A0592012204920F22E9
:1044EC00039200220292019200930B4B4FF4A072A4
:1044FC000A494FF4B07C0CFB0011204600F016F971
:10450C00637B23F00403637306B010BDD803002053
:10451C00300C002058770000954800000017002050
:10452C0008B50A4B01221A700220FFF7A1FF01F017
:10453C0079FA0320FFF79CFF00F05CF902F0C5FE4E
:10454C00034A137B23F00103137308BD790C00207D
:10455C008804002008B50146014A0248FCF73CFFDC
:10456C002D4500008804002008B50348034A121AA0
:10457C00002102F0E8FB08BDA80100207C0C002003
:10458C0010B50446FFF79CFF0B49B02303FB041145
:10459C000A4A04EB440302EBC303D9601C7504EB19
:1045AC008411074B03EB411303F5026304EB440442
:1045BC0002EBC404636010BDD8030020300C002053
:1045CC006018002070B586B000F010FF104D114B34
:1045DC00DD61114B05930123049300240394029491
:1045EC00019400940D4B4FF480620D49284600F065
:1045FC009DF806466B7B23F004036B73284602F090
:10460C009BFC2046FFF7BCFF304606B070BD00BFD8
:10461C0088040020300C0020607700002D4500003D
:10462C00E012002000B5ADB01D4B83F308881D4C83
:10463C00636943F400736361E02384F8223000253E
:10464C00E57725766576A57684F82050636A43F481
:10465C00E023636284F82350FDF716F8FCF796FD0F
:10466C004FF0FF33A362E362FDF72AF9FDF7BAF8C6
:10467C0001248DF80D408DF80C4026952795299531
:10468C00094BC3F808D0FFF7E7FE2846FFF7F0FE0A
:10469C002046FFF7EDFEFFF795FFFFF75BFF00BF2E
:1046AC008020002000ED00E0300C00204FF02003B3
:1046BC00EFF3118183F31288BFF36F8F0A4B9B6A60
:1046CC00834204D11A6F084B9A6207E0134613B168
:1046DC001A6F8242FAD10BB1026F1A6781F31188FB
:1046EC00BFF36F8F704700BF300C002010B504462D
:1046FC0040B11F2204F1740001F00EFD002084F87B
:10470C00930010BD014B9C68F3E700BF300C0020F8
:10471C0008B553EA020102D102F035FB08BD02498B
:10472C00183000F0CFFFF9E77D6F00002DE9F04F56
:10473C0085B004460F4615461E46DDF838A0DDF858
:10474C003C90DDF84080DDF84CB000F158038365F7
:10475C00C365129B0422119902F019FB2A463946B3
:10476C00204602F0F8FA0546CDF80880CDF8049002
:10477C00CDF800A03346024639462046FCF7E2FD50
:10478C00002363652666C4F864A0C4F86890C4F876
:10479C006C804FF02003EFF3118283F31288BFF388
:1047AC006F8F134B996A21679C6282F31188BFF358
:1047BC006F8FBBF1000F13D01F22594604F1740008
:1047CC0001F0AAFC002384F89330094B9B685BB181
:1047DC00D3F8A430C4F8A430284605B0BDE8F08F57
:1047EC00002384F87430F0E7C4F8A430F4E700BF79
:1047FC00300C002030B587B0214C14E0E36A0593EF
:10480C00236A0493E3690393A36902936369019395
:10481C0023690093E368A26861682068FFF786FF4C
:10482C0023685C653034174B9C42E7D300F046FBA1
:10483C00134C00E03034134B9C421CD2606AB0F134
:10484C00FF3FF7D0256820EAE070C117C90341EAA1
:10485C005041C00340F2E733C0184FF47A724FF066
:10486C00000341F10001FBF733FC02460B462846DE
:10487C00FFF74EFFDEE700F043FD07B030BD00BF91
:10488C00DC0000206C01002008B501E0FCF784FC82
:10489C004FF02002EFF3118382F31288BFF36F8F76
:1048AC0002F0ACFC054B9861054B1B78002BEDD04E
:1048BC00FCF74AFB0028EBD1E8E700BF300C0020E6
:1048CC00790C00202DE9F04383B004461D464FF0CF
:1048DC002003EFF3118783F31288BFF36F8FC16846
:1048EC0099B900294FD13A4B9B6893F90E3023614B
:1048FC000131E160364B9B68A36087F31188BFF3ED
:10490C006F8F002003B0BDE8F08316468268304BF1
:10491C009B689A42E5D055EA06010CBF4FF001089E
:10492C004FF0000831D092F90E90494693F90E00E1
:10493C0002F060FA81452FDC4FF0000900960195DA
:10494C0022463946234800F025FC0028DAD04FF0E7
:10495C002003EFF3118583F31288BFF36F8F236865
:10496C009C421FD0F3B1216993F90E0002F042FA78
:10497C000146204602F049FAB0B9B9F1000F15D042
:10498C004FF0010812E02369B1E787F31188BFF3F8
:10499C006F8F6FF00F00B5E70146204602F035FA35
:1049AC008146CBE72169E4E74FF00108B8F1000F2D
:1049BC0006D185F31188BFF36F8F6FF00A00A1E762
:1049CC002946044800F05EFA6FF00A009AE700BF2F
:1049DC00300C00205C0C00208268002A35D038B5E1
:1049EC0004461D4B9B689A4232D1DA7B013ADA734A
:1049FC00C368012B05D9013BC36000F081FC00208A
:104A0C0038BD4FF02003EFF3118583F31288BFF309
:104A1C006F8F016902F0F9F9204602F054FBA06097
:104A2C0060B190F90E3023610023C0F8AC3002F075
:104A3C0083FA2946094800F025FADEE70023E360F3
:104A4C0085F31188BFF36F8FD7E76FF015007047B0
:104A5C004FF0FF30D4E700BF300C00205C0C00207E
:104A6C0038B504464FF02003EFF3118583F3128819
:104A7C00BFF36F8F02F027FB48B10022C0F8AC20C7
:104A8C0002F05AFA2946074800F0FCF938BDA36831
:104A9C00E268934203D001221344A360F2E70022A0
:104AAC00FAE700BF5C0C002010B582B04FF0200478
:104ABC00EFF3118184F31288BFF36F8F846844B1D4
:104ACC00013C846081F31188BFF36F8F002002B02A
:104ADC0010BD53EA020406D0009201930246054829
:104AEC0000F058FBF3E781F31188BFF36F8F6FF081
:104AFC000F00ECE75C0C0020F8B50D46C36813F012
:104B0C00020F5CD1044613F0040F5DD10B68002B2F
:104B1C0038D0E36813F0010F37D0A3682B6002275D
:104B2C002E68002E3FD0294B9B68B3422FD0002318
:104B3C001A46D6F8C830C3F38001C3F3C00013F093
:104B4C00010F33D001B1A2B300B1A9B3002323608C
:104B5C00D6F8B43013B31C60C6F8B4402EB10022A2
:104B6C00114606F1B80002F0DDFA0120002806DB40
:104B7C00E36843F00403E3602B68A3603846002825
:104B8C0021DC1EE083680B60C3E70127C8E702F055
:104B9C00F4F808B90123CBE70023C9E7C6F8B44001
:104BAC00C6F8B040DAE76FF01500DFE76FF01200DF
:104BBC00DCE76FF00F00D9E76FF00F00D6E76FF06E
:104BCC000F0000232B60F8BD0020FAE7300C00200A
:104BDC0070B50546C36823F00203C3601A4B1B680B
:104BEC00FBB11C4603B11C6800261FE01A4666B1D7
:104BFC0019683160144949688B420FD0002111604B
:104C0C0003F10800FFF72CFF15E018680E49086047
:104C1C0049688B42F2D10C494860EFE70A494E6073
:104C2C00ECE71C46E0E722462346144653B15A688B
:104C3C00AA42DBD01E46002CF5D02246002CF3D025
:104C4C002268F1E770BD00BF5C0C0020F0B585B0A8
:104C5C00054616E0D5F8C83023F00402C5F8C82084
:104C6C0013F0040F59D1002302934FF0FF324FF091
:104C7C00FF33CDE9002305F1B80231462E4800F090
:104C8C00ABFC4FF02003EFF3118683F31288BFF3D4
:104C9C006F8FD5F8B040002CDCD02368C5F8B0304D
:104CAC00D5F8B420944235D0D5F8C83043F002037F
:104CBC00C5F8C830E36843F00103E36023F0040354
:104CCC00E3606368002CCED086F31188BFF36F8F3E
:104CDC00204698474FF02003EFF3118683F3128898
:104CEC00BFF36F8FE36823F00103E36013F0020F4F
:104CFC001ED1D5F8C83023F00203C5F8C830C3F371
:104D0C00002386F31188BFF36F8F002BB9D100F00D
:104D1C0079FBB6E7C5F8B430C6E705F1C007002249
:104D2C000121384602F0FEF90028F8D10023C9E72A
:104D3C002046FFF74DFFDCE75C0C002008B5014670
:104D4C00014802F083F808BD40050020F0B589B099
:104D5C0004460E9D0020C4F8B000C4F8B40004F161
:104D6C00B800C4F8B800C4F8BC0004F1C000C4F822
:104D7C00C000C4F8C400FDB12879F8B90120C4F80A
:104D8C00C8004FF0FF364FF0FF37CDE90667002023
:104D9C00049003930290019000940A4B204602F079
:104DAC0001F825B1296811B12046FFF79FFC204678
:104DBC0001F0E9FF09B0F0BD0120E0E740F201107D
:104DCC00DDE700BF594C0000B3F1FF3F08BFB2F163
:104DDC00FF3F00D1704708B50249183000F072FC53
:104DEC0008BD00BF7D6F000010B5074B1C6804B9EF
:104DFC0010BDFDF747FF0444044B1C610021024B1E
:104E0C00186802F012FAF3E76C0C0020300C00204A
:104E1C0070B504460D4600234FF02002EFF31186C7
:104E2C0082F31288BFF36F8F0EE00228B8BF022006
:104E3C001860114B1D60114B9868FFF7D5FF86F376
:104E4C001188BFF36F8F0123A3B90C4B00221A6199
:104E5C00610CE30340F2E73018184FF47A724FF00C
:104E6C00000341F10001FBF733F9054B1860002CEE
:104E7C00DBDCDEE770BD00BF680C0020300C0020CE
:104E8C006C0C002008B5084621B9EFF3058313B963
:104E9C00012100E0002111F0010F07D0064BDA6967
:104EAC009B689A4202D0FCF7F5F903E080F3118875
:104EBC00BFF36F8F08BD00BF300C002000234FF0F4
:104ECC002002EFF3118182F31288BFF36F8F09E098
:104EDC00064B9A68D37B013BD37381F31188BFF3E4
:104EEC006F8F0123002BF3D0704700BF300C0020D4
:104EFC0038B50446104802F018F8054670B184B96C
:104F0C000E4B9B685A7B12F01F0F0AD1AA6942B94B
:104F1C00DA897F2A05D9094AD3610BE0074BDD6892
:104F2C00EDE7064B9B68AB4202D02846FFF75CFFCF
:104F3C00024BDD6138BD00BF500C0020300C00204E
:104F4C0038B50546427B90F90D30002B28DB6B7B86
:104F5C0063F07F036B731A4B53F8204F9C422DD098
:104F6C006CB12146284601F099FF002820DC34B1B1
:104F7C00134B5B6A9C4202D02468002CF0D1104B7E
:104F8C005A6A03F1200129606A6015605D620C4B5E
:104F9C009868A84214BF00200120FFF7A9FF38BD74
:104FAC0002F07F0242730146064801F0B6FFCEE7DD
:104FBC0063686B602C601D606560E8E70024CFE7D8
:104FCC00300C0020500C002038B50446074B9D686F
:104FDC006B7B13F01F0F04D02846FFF705FF20460C
:104FEC0038BD2846FFF7ACFFF6E700BF300C0020B9
:104FFC0038B54FF02003EFF3118483F31288BFF31D
:10500C006F8F224B9B68224A1268934218D021461C
:10501C001F4A002515601F4A126872B3DA897F2A6D
:10502C0016D85A7B12F01F0F1CD193F90E501A4A46
:10503C001268954218DB194A934217D0012308E0F5
:10504C001846FFF7D1FE84F31188BFF36F8F1BE076
:10505C00002393B10D4B1B69834209DD181A0B4BCE
:10506C0018610DE00023F4E70023F2E70023F0E7DA
:10507C002046FFF7A9FF014602E0044B00221A610B
:10508C0081F31188BFF36F8F38BD00BF300C002047
:10509C00640C00206C0C0020680C0020D80300204D
:1050AC0038B5437B90F90D20002A2DDB044613F014
:1050BC001F0F05D182690AB1002202E0012200E033
:1050CC0000220AB363F07F036373144B53F8205F21
:1050DC009D4220D06DB12946204601F0DFFE00280C
:1050EC0013DC35B10D4B5B6A9D4202D02D68002D4F
:1050FC00F0D10A4B5A6A03F12001216062601460FE
:10510C005C620020FFF7F4FE38BD6B6863602560BD
:10511C001C606C60F5E70025DCE700BF300C00205C
:10512C0010B54FF02003EFF3118483F31288BFF313
:10513C006F8F437B13F0040F04D184F31188BFF3FA
:10514C006F8F10BD23F004034373FFF7A9FF2146B3
:10515C000148FFF797FEF4E7680C002010B50446F1
:10516C00427B90F90D30002B08DB084B9868A0426D
:10517C0014BF00200120FFF7BBFE10BD02F07F0220
:10518C0042730146024801F0C8FEEEE7300C0020E5
:10519C00500C002010B50C461146064B9868064B77
:1051AC001860DDE9022301F045FF2046FCF772F898
:1051BC0010BD00BF300C0020640C00202DE9F8431A
:1051CC0004460E4600234FF02002EFF3118882F3C1
:1051DC001288BFF36F8F1F4608E012F0010711D140
:1051EC00A67388F31188BFF36F8F01231A46002B27
:1051FC003DD1637B13F01F0FEFD1A1690029ECD1D6
:10520C000122EAE703F07F036373DFF8689021461D
:10521C00484601F082FEA673637B63F07F036373E1
:10522C00D9F800504D4520D06DB12946204601F0EB
:10523C0035FE002813DC35B10F4B5B6A9D4202D062
:10524C002D68002DF0D10C4B5A6A03F1200121601E
:10525C00626014605C620120FFF74AFEC1E76B6874
:10526C00636025601C606C60F5E70025DCE7384660
:10527C00BDE8F883500C0020300C002038B50446F3
:10528C00183001F09DFF00234FF02002EFF3118541
:10529C0082F31288BFF36F8F10E0637B43F010032F
:1052AC006373154B9868A04214BF00200120FFF7D0
:1052BC001FFE85F31188BFF36F8F012363B9627BE7
:1052CC0094F90D30002BE8DA02F07F02627321466C
:1052DC000A4801F022FEE0E7074B9B68A34200D08E
:1052EC0038BD4FF02003EFF3118083F31288BFF326
:1052FC006F8F01F0FDFDF3E7300C0020500C002007
:10530C0010B500234FF02002EFF3118482F31288C2
:10531C00BFF36F8F0CE00D4B9A68D37B0133D373C3
:10532C000020FFF7E5FD84F31188BFF36F8F012395
:10533C00002BF0D04FF02003EFF3118083F3128891
:10534C00BFF36F8F01F0D4FD10BD00BF300C0020F7
:10535C00F8B5437B13F0080F45D1054643F008031D
:10536C00437303F0DF03437313F0800F2DD1AB684D
:10537C005BB1284601F090FD294601F0CEFD6B7B18
:10538C0023F002036B730023AB6005F1180001F0EE
:10539C0017FF05F158073C68BC421ED0ECB1204603
:1053AC0001F07AFD214601F0B8FD637B23F0020386
:1053BC0063730026A66004F1180001F001FFC4F825
:1053CC00AC602046FFF76CFEE5E703F07F03437308
:1053DC000146054801F0A1FDC9E70120FFF788FD52
:1053EC002846FFF763F9F8BD500C002008B50448B7
:1053FC0001F094FE00210846FFF70AFD08BD00BF2E
:10540C004C0C0020F8B54FF02003EFF3118683F31A
:10541C001288BFF36F8F1C4CA1684B7B03F07F038A
:10542C004B7304F12007384601F077FDA5686B7BC0
:10543C0063F07F036B73246ABC4223D06CB12146AA
:10544C00284601F02BFD002816DC34B10E4B5B6AAC
:10545C009C4202D02468002CF0D10B4B5A6A03F109
:10546C00200129606A6015605D620120FFF740FD34
:10547C003046FBF70FFFF8BD63686B602C601D6056
:10548C006560F2E70024D9E7300C00202DE9F041EB
:10549C0050EA010338D004460E466FF001031B1A84
:1054AC004FF0FF3262EB0102012B72F100032FDB94
:1054BC006FF001052D1A4FF02003EFF3118883F3E1
:1054CC001288BFF36F8F144FB868144B1860FFF736
:1054DC0045FEB868224633461149183000F0F2F800
:1054EC00BA68537B43F0100353734046FBF7D2FE6C
:1054FC0001F0C6FE281A63EB0303012873F10003C5
:10550C0000DA0020BDE8F081FFF77CFF0020F9E70E
:10551C0001F0B6FE0519CEE7300C0020640C00201B
:10552C007D6F000008B5B1F1FF3F08BFB0F1FF3F40
:10553C001AD0FFF7ABFF8446C217510141EAD06184
:10554C0043011B1A61EB0201880040EA93709B0037
:10555C0013EB0C0342EB0000C00040EA5370C3F3A2
:10556C00103343EA404008BD034B9868FFF786FEB2
:10557C004FF0FF30F7E700BF300C0020014B98686C
:10558C00704700BF300C002038B54FF02003EFF30C
:10559C00118583F31288BFF36F8F437B13F0080FD1
:1055AC0004D085F31188BFF36F8F38BD0446FFF725
:1055BC00CFFE084B9B68A34204D085F31188BFF340
:1055CC006F8FF2E7EFF30583002BF6D12846FBF73C
:1055DC0061FEF2E7300C00202DE9104883B0089CE6
:1055EC00DDE906BCCDE900BCFFF7D4FD1CB1034BD3
:1055FC009B685B69236003B0BDE81088300C002009
:10560C0008B50648064A121A064901F0A0FB064ADC
:10561C000649074801F09BFB08BD00BF00000020B5
:10562C00A8010020AC77000000000000AC7700005F
:10563C0000000020034B1868984200D070470020EF
:10564C00FCE700BFC000002030B1044A5268904211
:10565C0001D0006870470020704700BFC0000020D8
:10566C0008B5044B1B680BB1002008BDFDF70AFB05
:10567C00FBE700BF700C002010B5FFF7DBFF044602
:10568C00FFF7EEFF7CB1236962691B1A62EBE070D5
:10569C00B3F1004F70F1000208DA002801DB184664
:1056AC0006E00023FBE76FF0004001E06FF00040E4
:1056BC00034B1B6913B1834200DA184610BD00BFBF
:1056CC00300C0020B3F1FF3F08BFB2F1FF3F7DD09B
:1056DC002DE9F047044692461D46816000234FF0A9
:1056EC002002EFF3118782F31288BFF36F8F21E052
:1056FC001AF1010845F10009FFF7B2FF18EB00039E
:10570C0049EBE0702361606136E0511A66EB0303EC
:10571C00016143614368636020601C604460002841
:10572C003ED0FFF787FF844241D087F31188BFF347
:10573C006F8F0123002B47D153466FF00101B1EB62
:10574C000A014FF0FF3060EB0502002AD0DB204A43
:10575C00116852685B1842EB05026FF00101CB1A1D
:10576C0060EB020218461146012B72F1000301DABC
:10577C000120002120616161FFF75CFF0028CED081
:10578C000269466921696369914273EB060CBCDBC3
:10579C00891A63EB060321616361FFF755FFEDE79F
:1057AC000C4B5A682360626014605C60B9E7FFF7C9
:1057BC0063FF034618B1084A12698242B5D0002132
:1057CC001846FDF72DFAB0E7BDE8F087704700BF2B
:1057DC0038050020C0000020300C002070B50446B5
:1057EC00FFF706FC4FF02003EFF3118583F31288CB
:1057FC00BFF36F8F284B1C6020E028480168466877
:10580C00891846EBE276016046609B1A224A1360C7
:10581C0000220023C4E90423204601F0BAFC85F3DE
:10582C001188BFF36F8FA368204698474FF0200371
:10583C00EFF3118583F31288BFF36F8FFFF7FAFE36
:10584C00044640B102694169134B1B68D817934257
:10585C0070EB0101D1DA44B10F4B1968236962690D
:10586C005B1A62EBE172236162610C4A0A4E30688A
:10587C00136851681B1841EBE071136051600024F0
:10588C003460FFF7F9FE2146FDF7CAF985F311885C
:10589C00BFF36F8F70BD00BF700C00203805002067
:1058AC0010B500234FF02002EFF3118482F312881D
:1058BC00BFF36F8F184619460CE0FDF7E3F9074A62
:1058CC0013685168C01841F1000184F31188BFF3CB
:1058DC006F8F0123002BF0D010BD00BF38050020C6
:1058EC0070B504464FF02003EFF3118683F3128852
:1058FC00BFF36F8F3546826AC36A52EA030105D043
:10590C00B3F1FF3F08BFB2F1FF3F27D1236B013347
:10591C002363236A73B186F31188BFF36F8F236AF5
:10592C00204698474FF02003EFF3118583F312883C
:10593C00BFF36F8F04F11803A469A34214D09CB178
:10594C00204601F0B5FA0023C4F8AC3085F3118879
:10595C00BFF36F8F204601F0EFFA70BDD0E90A2338
:10596C000449FFF7AFFED1E785F31188BFF36F8FC2
:10597C00F3E700BFED5800002DE9F041069FDDF87C
:10598C001C80B3F1FF3F08BFB2F1FF3F2FD005469B
:10599C0014461E4611461846B8F1FF3F08BFB7F132
:1059AC00FF3F0DD057EA080C0AD06FF0010CBCEB8E
:1059BC00070C4FF0FF3C6CEB080CBCF1000F18DB34
:1059CC006FF001035B1A4FF0FF3363EB0003002B06
:1059DC001ADB284601F0F4FBAF62C5F82C800023DB
:1059EC002B63224633460E492846FFF76BFEBDE873
:1059FC00F081022F78F1000302DA02274FF0000841
:105A0C00013F48F1FF38DBE70C460646012970F1EF
:105A1C00000301DA01240026013C46F1FF36D8E7E9
:105A2C00ED58000008B5034A0349044800F097F804
:105A3C0008BD00BF987500006877000078770000FB
:105A4C0010B584B0084B029300248DF80C4002ABC7
:105A5C0000934FF0FF334FF4806204490448FFF782
:105A6C0075F9204604B010BDA077000080200020FE
:105A7C004005002030B585B004AC04E90F009DF85A
:105A8C000410BDF8063043F4D0138568046913F490
:105A9C00402F04D013F0010F01D083F4402323F4E2
:105AAC00801213F0010F0BD0012303FA01FC2368C1
:105ABC0043EA0C0323602B68984700281DDA26E084
:105ACC00012303FA01FC236823EA0C032360F2E7A9
